{
  "_format": "hh-sol-artifact-1",
  "contractName": "XYZToken",
  "sourceName": "contracts/XYZToken.sol",
  "abi": [
    {
      "inputs": [
        {
          "internalType": "uint256",
          "name": "initialSupply",
          "type": "uint256"
        }
      ],
      "stateMutability": "nonpayable",
      "type": "constructor"
    },
    {
      "anonymous": false,
      "inputs": [
        {
          "indexed": true,
          "internalType": "address",
          "name": "owner",
          "type": "address"
        },
        {
          "indexed": true,
          "internalType": "address",
          "name": "spender",
          "type": "address"
        },
        {
          "indexed": false,
          "internalType": "uint256",
          "name": "value",
          "type": "uint256"
        }
      ],
      "name": "Approval",
      "type": "event"
    },
    {
      "anonymous": false,
      "inputs": [
        {
          "indexed": true,
          "internalType": "address",
          "name": "previousOwner",
          "type": "address"
        },
        {
          "indexed": true,
          "internalType": "address",
          "name": "newOwner",
          "type": "address"
        }
      ],
      "name": "OwnershipTransferred",
      "type": "event"
    },
    {
      "anonymous": false,
      "inputs": [
        {
          "indexed": true,
          "internalType": "address",
          "name": "from",
          "type": "address"
        },
        {
          "indexed": true,
          "internalType": "address",
          "name": "to",
          "type": "address"
        },
        {
          "indexed": false,
          "internalType": "uint256",
          "name": "value",
          "type": "uint256"
        }
      ],
      "name": "Transfer",
      "type": "event"
    },
    {
      "inputs": [
        {
          "internalType": "address[]",
          "name": "beneficiaries_",
          "type": "address[]"
        }
      ],
      "name": "addBenificiaries",
      "outputs": [],
      "stateMutability": "nonpayable",
      "type": "function"
    },
    {
      "inputs": [
        {
          "internalType": "address",
          "name": "owner",
          "type": "address"
        },
        {
          "internalType": "address",
          "name": "spender",
          "type": "address"
        }
      ],
      "name": "allowance",
      "outputs": [
        {
          "internalType": "uint256",
          "name": "",
          "type": "uint256"
        }
      ],
      "stateMutability": "view",
      "type": "function"
    },
    {
      "inputs": [],
      "name": "amount",
      "outputs": [
        {
          "internalType": "uint256",
          "name": "",
          "type": "uint256"
        }
      ],
      "stateMutability": "view",
      "type": "function"
    },
    {
      "inputs": [
        {
          "internalType": "address",
          "name": "spender",
          "type": "address"
        },
        {
          "internalType": "uint256",
          "name": "amount",
          "type": "uint256"
        }
      ],
      "name": "approve",
      "outputs": [
        {
          "internalType": "bool",
          "name": "",
          "type": "bool"
        }
      ],
      "stateMutability": "nonpayable",
      "type": "function"
    },
    {
      "inputs": [
        {
          "internalType": "address",
          "name": "account",
          "type": "address"
        }
      ],
      "name": "balanceOf",
      "outputs": [
        {
          "internalType": "uint256",
          "name": "",
          "type": "uint256"
        }
      ],
      "stateMutability": "view",
      "type": "function"
    },
    {
      "inputs": [],
      "name": "beneficiaries",
      "outputs": [
        {
          "internalType": "address[]",
          "name": "",
          "type": "address[]"
        }
      ],
      "stateMutability": "view",
      "type": "function"
    },
    {
      "inputs": [],
      "name": "decimals",
      "outputs": [
        {
          "internalType": "uint8",
          "name": "",
          "type": "uint8"
        }
      ],
      "stateMutability": "view",
      "type": "function"
    },
    {
      "inputs": [
        {
          "internalType": "address",
          "name": "spender",
          "type": "address"
        },
        {
          "internalType": "uint256",
          "name": "subtractedValue",
          "type": "uint256"
        }
      ],
      "name": "decreaseAllowance",
      "outputs": [
        {
          "internalType": "bool",
          "name": "",
          "type": "bool"
        }
      ],
      "stateMutability": "nonpayable",
      "type": "function"
    },
    {
      "inputs": [
        {
          "internalType": "uint256",
          "name": "vestingDuration_",
          "type": "uint256"
        }
      ],
      "name": "enableTokenVesting",
      "outputs": [],
      "stateMutability": "nonpayable",
      "type": "function"
    },
    {
      "inputs": [
        {
          "internalType": "address",
          "name": "beneficiary_",
          "type": "address"
        }
      ],
      "name": "getReleasedAmount",
      "outputs": [
        {
          "internalType": "uint256",
          "name": "",
          "type": "uint256"
        }
      ],
      "stateMutability": "view",
      "type": "function"
    },
    {
      "inputs": [],
      "name": "getVestedAmount",
      "outputs": [
        {
          "internalType": "uint256",
          "name": "",
          "type": "uint256"
        }
      ],
      "stateMutability": "view",
      "type": "function"
    },
    {
      "inputs": [
        {
          "internalType": "address",
          "name": "spender",
          "type": "address"
        },
        {
          "internalType": "uint256",
          "name": "addedValue",
          "type": "uint256"
        }
      ],
      "name": "increaseAllowance",
      "outputs": [
        {
          "internalType": "bool",
          "name": "",
          "type": "bool"
        }
      ],
      "stateMutability": "nonpayable",
      "type": "function"
    },
    {
      "inputs": [],
      "name": "isBeneficiary",
      "outputs": [
        {
          "internalType": "bool",
          "name": "",
          "type": "bool"
        }
      ],
      "stateMutability": "view",
      "type": "function"
    },
    {
      "inputs": [],
      "name": "name",
      "outputs": [
        {
          "internalType": "string",
          "name": "",
          "type": "string"
        }
      ],
      "stateMutability": "view",
      "type": "function"
    },
    {
      "inputs": [],
      "name": "owner",
      "outputs": [
        {
          "internalType": "address",
          "name": "",
          "type": "address"
        }
      ],
      "stateMutability": "view",
      "type": "function"
    },
    {
      "inputs": [],
      "name": "releaseRate",
      "outputs": [
        {
          "internalType": "uint256",
          "name": "",
          "type": "uint256"
        }
      ],
      "stateMutability": "view",
      "type": "function"
    },
    {
      "inputs": [],
      "name": "releaseToken",
      "outputs": [],
      "stateMutability": "nonpayable",
      "type": "function"
    },
    {
      "inputs": [],
      "name": "renounceOwnership",
      "outputs": [],
      "stateMutability": "nonpayable",
      "type": "function"
    },
    {
      "inputs": [
        {
          "internalType": "uint256",
          "name": "totalSupply_",
          "type": "uint256"
        },
        {
          "internalType": "uint256",
          "name": "totalBenificiaries_",
          "type": "uint256"
        }
      ],
      "name": "setAmount",
      "outputs": [],
      "stateMutability": "nonpayable",
      "type": "function"
    },
    {
      "inputs": [
        {
          "internalType": "uint256",
          "name": "vestingDuration_",
          "type": "uint256"
        }
      ],
      "name": "setReleaseRate",
      "outputs": [],
      "stateMutability": "nonpayable",
      "type": "function"
    },
    {
      "inputs": [],
      "name": "symbol",
      "outputs": [
        {
          "internalType": "string",
          "name": "",
          "type": "string"
        }
      ],
      "stateMutability": "view",
      "type": "function"
    },
    {
      "inputs": [
        {
          "internalType": "address",
          "name": "beneficiary_",
          "type": "address"
        }
      ],
      "name": "tokenReleased",
      "outputs": [
        {
          "internalType": "uint256",
          "name": "",
          "type": "uint256"
        }
      ],
      "stateMutability": "view",
      "type": "function"
    },
    {
      "inputs": [
        {
          "internalType": "uint256",
          "name": "startTime_",
          "type": "uint256"
        },
        {
          "internalType": "uint256",
          "name": "endTime_",
          "type": "uint256"
        }
      ],
      "name": "tokenVested",
      "outputs": [
        {
          "internalType": "uint256",
          "name": "",
          "type": "uint256"
        }
      ],
      "stateMutability": "view",
      "type": "function"
    },
    {
      "inputs": [],
      "name": "totalSupply",
      "outputs": [
        {
          "internalType": "uint256",
          "name": "",
          "type": "uint256"
        }
      ],
      "stateMutability": "view",
      "type": "function"
    },
    {
      "inputs": [
        {
          "internalType": "address",
          "name": "to",
          "type": "address"
        },
        {
          "internalType": "uint256",
          "name": "amount",
          "type": "uint256"
        }
      ],
      "name": "transfer",
      "outputs": [
        {
          "internalType": "bool",
          "name": "",
          "type": "bool"
        }
      ],
      "stateMutability": "nonpayable",
      "type": "function"
    },
    {
      "inputs": [
        {
          "internalType": "address",
          "name": "from",
          "type": "address"
        },
        {
          "internalType": "address",
          "name": "to",
          "type": "address"
        },
        {
          "internalType": "uint256",
          "name": "amount",
          "type": "uint256"
        }
      ],
      "name": "transferFrom",
      "outputs": [
        {
          "internalType": "bool",
          "name": "",
          "type": "bool"
        }
      ],
      "stateMutability": "nonpayable",
      "type": "function"
    },
    {
      "inputs": [
        {
          "internalType": "address",
          "name": "newOwner",
          "type": "address"
        }
      ],
      "name": "transferOwnership",
      "outputs": [],
      "stateMutability": "nonpayable",
      "type": "function"
    },
    {
      "inputs": [
        {
          "internalType": "address",
          "name": "beneficiary_",
          "type": "address"
        },
        {
          "internalType": "uint256",
          "name": "releaseAmount_",
          "type": "uint256"
        }
      ],
      "name": "updateReleasedAmount",
      "outputs": [],
      "stateMutability": "nonpayable",
      "type": "function"
    },
    {
      "inputs": [],
      "name": "vestingDuration",
      "outputs": [
        {
          "internalType": "uint256",
          "name": "",
          "type": "uint256"
        }
      ],
      "stateMutability": "view",
      "type": "function"
    },
    {
      "inputs": [],
      "name": "vestingStartTime",
      "outputs": [
        {
          "internalType": "uint256",
          "name": "",
          "type": "uint256"
        }
      ],
      "stateMutability": "view",
      "type": "function"
    }
  ],
  "bytecode": "0x60806040523480156200001157600080fd5b50604051620030e9380380620030e9833981810160405281019062000037919062000484565b6040518060400160405280600981526020017f58595a20546f6b656e00000000000000000000000000000000000000000000008152506040518060400160405280600381526020017f58595a00000000000000000000000000000000000000000000000000000000008152508160039080519060200190620000bb92919062000394565b508060049080519060200190620000d492919062000394565b505050620000f7620000eb6200013a60201b60201c565b6200014260201b60201c565b62000133336200010c6200020860201b60201c565b600a6200011a919062000646565b8362000127919062000697565b6200021160201b60201c565b506200086b565b600033905090565b6000600560009054906101000a900473ffffffffffffffffffffffffffffffffffffffff16905081600560006101000a81548173ffffffffffffffffffffffffffffffffffffffff021916908373ffffffffffffffffffffffffffffffffffffffff1602179055508173ffffffffffffffffffffffffffffffffffffffff168173ffffffffffffffffffffffffffffffffffffffff167f8be0079c531659141344cd1fd0a4f28419497f9722a3daafe3b4186f6b6457e060405160405180910390a35050565b60006012905090565b600073ffffffffffffffffffffffffffffffffffffffff168273ffffffffffffffffffffffffffffffffffffffff16141562000284576040517f08c379a00000000000000000000000000000000000000000000000000000000081526004016200027b9062000759565b60405180910390fd5b62000298600083836200038a60201b60201c565b8060026000828254620002ac91906200077b565b92505081905550806000808473ffffffffffffffffffffffffffffffffffffffff1673ffffffffffffffffffffffffffffffffffffffff16815260200190815260200160002060008282546200030391906200077b565b925050819055508173ffffffffffffffffffffffffffffffffffffffff16600073ffffffffffffffffffffffffffffffffffffffff167fddf252ad1be2c89b69c2b068fc378daa952ba7f163c4a11628f55a4df523b3ef836040516200036a9190620007e9565b60405180910390a362000386600083836200038f60201b60201c565b5050565b505050565b505050565b828054620003a29062000835565b90600052602060002090601f016020900481019282620003c6576000855562000412565b82601f10620003e157805160ff191683800117855562000412565b8280016001018555821562000412579182015b8281111562000411578251825591602001919060010190620003f4565b5b50905062000421919062000425565b5090565b5b808211156200044057600081600090555060010162000426565b5090565b600080fd5b6000819050919050565b6200045e8162000449565b81146200046a57600080fd5b50565b6000815190506200047e8162000453565b92915050565b6000602082840312156200049d576200049c62000444565b5b6000620004ad848285016200046d565b91505092915050565b7f4e487b7100000000000000000000000000000000000000000000000000000000600052601160045260246000fd5b60008160011c9050919050565b6000808291508390505b600185111562000544578086048111156200051c576200051b620004b6565b5b60018516156200052c5780820291505b80810290506200053c85620004e5565b9450620004fc565b94509492505050565b6000826200055f576001905062000632565b816200056f576000905062000632565b81600181146200058857600281146200059357620005c9565b600191505062000632565b60ff841115620005a857620005a7620004b6565b5b8360020a915084821115620005c257620005c1620004b6565b5b5062000632565b5060208310610133831016604e8410600b8410161715620006035782820a905083811115620005fd57620005fc620004b6565b5b62000632565b620006128484846001620004f2565b925090508184048111156200062c576200062b620004b6565b5b81810290505b9392505050565b600060ff82169050919050565b6000620006538262000449565b9150620006608362000639565b92506200068f7fffffffffffffffffffffffffffffffffffffffffffffffffffffffffffffffff84846200054d565b905092915050565b6000620006a48262000449565b9150620006b18362000449565b9250817fffffffffffffffffffffffffffffffffffffffffffffffffffffffffffffffff0483118215151615620006ed57620006ec620004b6565b5b828202905092915050565b600082825260208201905092915050565b7f45524332303a206d696e7420746f20746865207a65726f206164647265737300600082015250565b600062000741601f83620006f8565b91506200074e8262000709565b602082019050919050565b60006020820190508181036000830152620007748162000732565b9050919050565b6000620007888262000449565b9150620007958362000449565b9250827fffffffffffffffffffffffffffffffffffffffffffffffffffffffffffffffff03821115620007cd57620007cc620004b6565b5b828201905092915050565b620007e38162000449565b82525050565b6000602082019050620008006000830184620007d8565b92915050565b7f4e487b7100000000000000000000000000000000000000000000000000000000600052602260045260246000fd5b600060028204905060018216806200084e57607f821691505b6020821081141562000865576200086462000806565b5b50919050565b61286e806200087b6000396000f3fe608060405234801561001057600080fd5b50600436106101d95760003560e01c806395d89b4111610104578063aa8c217c116100a2578063dd62ed3e11610071578063dd62ed3e14610570578063ec715a31146105a0578063f2fde38b146105aa578063f32cddc0146105c6576101d9565b8063aa8c217c146104ea578063b9cdf75d14610508578063c6a023e914610538578063ca74110414610554576101d9565b8063a7032998116100de578063a70329981461044e578063a8660a781461046c578063a89eeebd1461048a578063a9059cbb146104ba576101d9565b806395d89b41146103e25780639f2d9f2a14610400578063a457c2d71461041e576101d9565b8063313ce5671161017c578063715018a61161014b578063715018a61461036c5780637b70209f1461037657806386197781146103945780638da5cb5b146103c4576101d9565b8063313ce567146102d257806339509351146102f057806364bb6dd51461032057806370a082311461033c576101d9565b80631514617e116101b85780631514617e1461024857806318160ddd146102665780631d29bd5a1461028457806323b872dd146102a2576101d9565b8062df15a8146101de57806306fdde03146101fa578063095ea7b314610218575b600080fd5b6101f860048036038101906101f39190611844565b6105e2565b005b6102026106d5565b60405161020f919061190a565b60405180910390f35b610232600480360381019061022d919061198a565b610767565b60405161023f91906119e5565b60405180910390f35b61025061078a565b60405161025d9190611a0f565b60405180910390f35b61026e610794565b60405161027b9190611a0f565b60405180910390f35b61028c61079e565b6040516102999190611ae8565b60405180910390f35b6102bc60048036038101906102b79190611b0a565b61082c565b6040516102c991906119e5565b60405180910390f35b6102da61085b565b6040516102e79190611b79565b60405180910390f35b61030a6004803603810190610305919061198a565b610864565b60405161031791906119e5565b60405180910390f35b61033a60048036038101906103359190611844565b61090e565b005b61035660048036038101906103519190611b94565b6109bc565b6040516103639190611a0f565b60405180910390f35b610374610a04565b005b61037e610a8c565b60405161038b91906119e5565b60405180910390f35b6103ae60048036038101906103a99190611b94565b610b39565b6040516103bb9190611a0f565b60405180910390f35b6103cc610b4b565b6040516103d99190611bd0565b60405180910390f35b6103ea610b75565b6040516103f7919061190a565b60405180910390f35b610408610c07565b6040516104159190611a0f565b60405180910390f35b6104386004803603810190610433919061198a565b610c29565b60405161044591906119e5565b60405180910390f35b610456610d13565b6040516104639190611a0f565b60405180910390f35b610474610d1d565b6040516104819190611a0f565b60405180910390f35b6104a4600480360381019061049f9190611b94565b610d27565b6040516104b19190611a0f565b60405180910390f35b6104d460048036038101906104cf919061198a565b610d70565b6040516104e191906119e5565b60405180910390f35b6104f2610d93565b6040516104ff9190611a0f565b60405180910390f35b610522600480360381019061051d9190611beb565b610d9d565b60405161052f9190611a0f565b60405180910390f35b610552600480360381019061054d9190611beb565b610dff565b005b61056e60048036038101906105699190611d73565b610e5a565b005b61058a60048036038101906105859190611dbc565b610fbb565b6040516105979190611a0f565b60405180910390f35b6105a8611042565b005b6105c460048036038101906105bf9190611b94565b61110a565b005b6105e060048036038101906105db919061198a565b611202565b005b6105ea61124a565b73ffffffffffffffffffffffffffffffffffffffff16610608610b4b565b73ffffffffffffffffffffffffffffffffffffffff161461065e576040517f08c379a000000000000000000000000000000000000000000000000000000000815260040161065590611e48565b60405180910390fd5b6000600a54146106a3576040517f08c379a000000000000000000000000000000000000000000000000000000000815260040161069a90611eb4565b60405180910390fd5b42600a8190555080600b819055506106c76106bc610794565b600980549050610dff565b6106d2600b5461090e565b50565b6060600380546106e490611f03565b80601f016020809104026020016040519081016040528092919081815260200182805461071090611f03565b801561075d5780601f106107325761010080835404028352916020019161075d565b820191906000526020600020905b81548152906001019060200180831161074057829003601f168201915b5050505050905090565b60008061077261124a565b905061077f818585611252565b600191505092915050565b6000600b54905090565b6000600254905090565b6060600980548060200260200160405190810160405280929190818152602001828054801561082257602002820191906000526020600020905b8160009054906101000a900473ffffffffffffffffffffffffffffffffffffffff1673ffffffffffffffffffffffffffffffffffffffff16815260200190600101908083116107d8575b5050505050905090565b60008061083761124a565b905061084485828561141d565b61084f8585856114a9565b60019150509392505050565b60006012905090565b60008061086f61124a565b9050610903818585600160008673ffffffffffffffffffffffffffffffffffffffff1673ffffffffffffffffffffffffffffffffffffffff16815260200190815260200160002060008973ffffffffffffffffffffffffffffffffffffffff1673ffffffffffffffffffffffffffffffffffffffff168152602001908152602001600020546108fe9190611f64565b611252565b600191505092915050565b60006006541415610954576040517f08c379a000000000000000000000000000000000000000000000000000000000815260040161094b90612006565b60405180910390fd5b600060075414610999576040517f08c379a000000000000000000000000000000000000000000000000000000000815260040161099090612098565b60405180910390fd5b80603c6006546109a991906120b8565b6109b39190612141565b60078190555050565b60008060008373ffffffffffffffffffffffffffffffffffffffff1673ffffffffffffffffffffffffffffffffffffffff168152602001908152602001600020549050919050565b610a0c61124a565b73ffffffffffffffffffffffffffffffffffffffff16610a2a610b4b565b73ffffffffffffffffffffffffffffffffffffffff1614610a80576040517f08c379a0000000000000000000000000000000000000000000000000000000008152600401610a7790611e48565b60405180910390fd5b610a8a600061172a565b565b600080600090505b600980549050811015610b305760098181548110610ab557610ab4612172565b5b9060005260206000200160009054906101000a900473ffffffffffffffffffffffffffffffffffffffff1673ffffffffffffffffffffffffffffffffffffffff163373ffffffffffffffffffffffffffffffffffffffff161415610b1d576001915050610b36565b8080610b28906121a1565b915050610a94565b50600090505b90565b6000610b4482610d27565b9050919050565b6000600560009054906101000a900473ffffffffffffffffffffffffffffffffffffffff16905090565b606060048054610b8490611f03565b80601f0160208091040260200160405190810160405280929190818152602001828054610bb090611f03565b8015610bfd5780601f10610bd257610100808354040283529160200191610bfd565b820191906000526020600020905b815481529060010190602001808311610be057829003601f168201915b5050505050905090565b6000610c24600a54600b54600a54610c1f9190611f64565b610d9d565b905090565b600080610c3461124a565b90506000600160008373ffffffffffffffffffffffffffffffffffffffff1673ffffffffffffffffffffffffffffffffffffffff16815260200190815260200160002060008673ffffffffffffffffffffffffffffffffffffffff1673ffffffffffffffffffffffffffffffffffffffff16815260200190815260200160002054905083811015610cfa576040517f08c379a0000000000000000000000000000000000000000000000000000000008152600401610cf19061225c565b60405180910390fd5b610d078286868403611252565b60019250505092915050565b6000600754905090565b6000600a54905090565b6000600860008373ffffffffffffffffffffffffffffffffffffffff1673ffffffffffffffffffffffffffffffffffffffff168152602001908152602001600020549050919050565b600080610d7b61124a565b9050610d888185856114a9565b600191505092915050565b6000600654905090565b600080603c8442610dae919061227c565b610db89190612141565b90506000603c8585610dca919061227c565b610dd49190612141565b905080821115610de2578091505b610dea610d13565b82610df591906120b8565b9250505092915050565b600060065414610e44576040517f08c379a0000000000000000000000000000000000000000000000000000000008152600401610e3b906122fc565b60405180910390fd5b8082610e509190612141565b6006819055505050565b610e6261124a565b73ffffffffffffffffffffffffffffffffffffffff16610e80610b4b565b73ffffffffffffffffffffffffffffffffffffffff1614610ed6576040517f08c379a0000000000000000000000000000000000000000000000000000000008152600401610ecd90611e48565b60405180910390fd5b600a81511115610f1b576040517f08c379a0000000000000000000000000000000000000000000000000000000008152600401610f1290612368565b60405180910390fd5b60005b8151811015610fb7576009828281518110610f3c57610f3b612172565b5b60200260200101519080600181540180825580915050600190039060005260206000200160009091909190916101000a81548173ffffffffffffffffffffffffffffffffffffffff021916908373ffffffffffffffffffffffffffffffffffffffff1602179055508080610faf906121a1565b915050610f1e565b5050565b6000600160008473ffffffffffffffffffffffffffffffffffffffff1673ffffffffffffffffffffffffffffffffffffffff16815260200190815260200160002060008373ffffffffffffffffffffffffffffffffffffffff1673ffffffffffffffffffffffffffffffffffffffff16815260200190815260200160002054905092915050565b61104a610a8c565b611089576040517f08c379a0000000000000000000000000000000000000000000000000000000008152600401611080906123d4565b60405180910390fd5b600061109433610b39565b61109c610c07565b6110a6919061227c565b9050600081116110eb576040517f08c379a00000000000000000000000000000000000000000000000000000000081526004016110e290612440565b60405180910390fd5b6110fd6110f6610b4b565b33836114a9565b6111073382611202565b50565b61111261124a565b73ffffffffffffffffffffffffffffffffffffffff16611130610b4b565b73ffffffffffffffffffffffffffffffffffffffff1614611186576040517f08c379a000000000000000000000000000000000000000000000000000000000815260040161117d90611e48565b60405180910390fd5b600073ffffffffffffffffffffffffffffffffffffffff168173ffffffffffffffffffffffffffffffffffffffff1614156111f6576040517f08c379a00000000000000000000000000000000000000000000000000000000081526004016111ed906124d2565b60405180910390fd5b6111ff8161172a565b50565b80600860008473ffffffffffffffffffffffffffffffffffffffff1673ffffffffffffffffffffffffffffffffffffffff168152602001908152602001600020819055505050565b600033905090565b600073ffffffffffffffffffffffffffffffffffffffff168373ffffffffffffffffffffffffffffffffffffffff1614156112c2576040517f08c379a00000000000000000000000000000000000000000000000000000000081526004016112b990612564565b60405180910390fd5b600073ffffffffffffffffffffffffffffffffffffffff168273ffffffffffffffffffffffffffffffffffffffff161415611332576040517f08c379a0000000000000000000000000000000000000000000000000000000008152600401611329906125f6565b60405180910390fd5b80600160008573ffffffffffffffffffffffffffffffffffffffff1673ffffffffffffffffffffffffffffffffffffffff16815260200190815260200160002060008473ffffffffffffffffffffffffffffffffffffffff1673ffffffffffffffffffffffffffffffffffffffff168152602001908152602001600020819055508173ffffffffffffffffffffffffffffffffffffffff168373ffffffffffffffffffffffffffffffffffffffff167f8c5be1e5ebec7d5bd14f71427d1e84f3dd0314c0f7b2291e5b200ac8c7c3b925836040516114109190611a0f565b60405180910390a3505050565b60006114298484610fbb565b90507fffffffffffffffffffffffffffffffffffffffffffffffffffffffffffffffff81146114a35781811015611495576040517f08c379a000000000000000000000000000000000000000000000000000000000815260040161148c90612662565b60405180910390fd5b6114a28484848403611252565b5b50505050565b600073ffffffffffffffffffffffffffffffffffffffff168373ffffffffffffffffffffffffffffffffffffffff161415611519576040517f08c379a0000000000000000000000000000000000000000000000000000000008152600401611510906126f4565b60405180910390fd5b600073ffffffffffffffffffffffffffffffffffffffff168273ffffffffffffffffffffffffffffffffffffffff161415611589576040517f08c379a000000000000000000000000000000000000000000000000000000000815260040161158090612786565b60405180910390fd5b6115948383836117f0565b60008060008573ffffffffffffffffffffffffffffffffffffffff1673ffffffffffffffffffffffffffffffffffffffff1681526020019081526020016000205490508181101561161a576040517f08c379a000000000000000000000000000000000000000000000000000000000815260040161161190612818565b60405180910390fd5b8181036000808673ffffffffffffffffffffffffffffffffffffffff1673ffffffffffffffffffffffffffffffffffffffff16815260200190815260200160002081905550816000808573ffffffffffffffffffffffffffffffffffffffff1673ffffffffffffffffffffffffffffffffffffffff16815260200190815260200160002060008282546116ad9190611f64565b925050819055508273ffffffffffffffffffffffffffffffffffffffff168473ffffffffffffffffffffffffffffffffffffffff167fddf252ad1be2c89b69c2b068fc378daa952ba7f163c4a11628f55a4df523b3ef846040516117119190611a0f565b60405180910390a36117248484846117f5565b50505050565b6000600560009054906101000a900473ffffffffffffffffffffffffffffffffffffffff16905081600560006101000a81548173ffffffffffffffffffffffffffffffffffffffff021916908373ffffffffffffffffffffffffffffffffffffffff1602179055508173ffffffffffffffffffffffffffffffffffffffff168173ffffffffffffffffffffffffffffffffffffffff167f8be0079c531659141344cd1fd0a4f28419497f9722a3daafe3b4186f6b6457e060405160405180910390a35050565b505050565b505050565b6000604051905090565b600080fd5b600080fd5b6000819050919050565b6118218161180e565b811461182c57600080fd5b50565b60008135905061183e81611818565b92915050565b60006020828403121561185a57611859611804565b5b60006118688482850161182f565b91505092915050565b600081519050919050565b600082825260208201905092915050565b60005b838110156118ab578082015181840152602081019050611890565b838111156118ba576000848401525b50505050565b6000601f19601f8301169050919050565b60006118dc82611871565b6118e6818561187c565b93506118f681856020860161188d565b6118ff816118c0565b840191505092915050565b6000602082019050818103600083015261192481846118d1565b905092915050565b600073ffffffffffffffffffffffffffffffffffffffff82169050919050565b60006119578261192c565b9050919050565b6119678161194c565b811461197257600080fd5b50565b6000813590506119848161195e565b92915050565b600080604083850312156119a1576119a0611804565b5b60006119af85828601611975565b92505060206119c08582860161182f565b9150509250929050565b60008115159050919050565b6119df816119ca565b82525050565b60006020820190506119fa60008301846119d6565b92915050565b611a098161180e565b82525050565b6000602082019050611a246000830184611a00565b92915050565b600081519050919050565b600082825260208201905092915050565b6000819050602082019050919050565b611a5f8161194c565b82525050565b6000611a718383611a56565b60208301905092915050565b6000602082019050919050565b6000611a9582611a2a565b611a9f8185611a35565b9350611aaa83611a46565b8060005b83811015611adb578151611ac28882611a65565b9750611acd83611a7d565b925050600181019050611aae565b5085935050505092915050565b60006020820190508181036000830152611b028184611a8a565b905092915050565b600080600060608486031215611b2357611b22611804565b5b6000611b3186828701611975565b9350506020611b4286828701611975565b9250506040611b538682870161182f565b9150509250925092565b600060ff82169050919050565b611b7381611b5d565b82525050565b6000602082019050611b8e6000830184611b6a565b92915050565b600060208284031215611baa57611ba9611804565b5b6000611bb884828501611975565b91505092915050565b611bca8161194c565b82525050565b6000602082019050611be56000830184611bc1565b92915050565b60008060408385031215611c0257611c01611804565b5b6000611c108582860161182f565b9250506020611c218582860161182f565b9150509250929050565b600080fd5b7f4e487b7100000000000000000000000000000000000000000000000000000000600052604160045260246000fd5b611c68826118c0565b810181811067ffffffffffffffff82111715611c8757611c86611c30565b5b80604052505050565b6000611c9a6117fa565b9050611ca68282611c5f565b919050565b600067ffffffffffffffff821115611cc657611cc5611c30565b5b602082029050602081019050919050565b600080fd5b6000611cef611cea84611cab565b611c90565b90508083825260208201905060208402830185811115611d1257611d11611cd7565b5b835b81811015611d3b5780611d278882611975565b845260208401935050602081019050611d14565b5050509392505050565b600082601f830112611d5a57611d59611c2b565b5b8135611d6a848260208601611cdc565b91505092915050565b600060208284031215611d8957611d88611804565b5b600082013567ffffffffffffffff811115611da757611da6611809565b5b611db384828501611d45565b91505092915050565b60008060408385031215611dd357611dd2611804565b5b6000611de185828601611975565b9250506020611df285828601611975565b9150509250929050565b7f4f776e61626c653a2063616c6c6572206973206e6f7420746865206f776e6572600082015250565b6000611e3260208361187c565b9150611e3d82611dfc565b602082019050919050565b60006020820190508181036000830152611e6181611e25565b9050919050565b7f546f6b656e2076657374696e6720616c72656164792073746172746564210000600082015250565b6000611e9e601e8361187c565b9150611ea982611e68565b602082019050919050565b60006020820190508181036000830152611ecd81611e91565b9050919050565b7f4e487b7100000000000000000000000000000000000000000000000000000000600052602260045260246000fd5b60006002820490506001821680611f1b57607f821691505b60208210811415611f2f57611f2e611ed4565b5b50919050565b7f4e487b7100000000000000000000000000000000000000000000000000000000600052601160045260246000fd5b6000611f6f8261180e565b9150611f7a8361180e565b9250827fffffffffffffffffffffffffffffffffffffffffffffffffffffffffffffffff03821115611faf57611fae611f35565b5b828201905092915050565b7f5f616d6f756e74204e6f7420496e697469616c697a6564210000000000000000600082015250565b6000611ff060188361187c565b9150611ffb82611fba565b602082019050919050565b6000602082019050818103600083015261201f81611fe3565b9050919050565b7f5f72656c65617365526174653a20416c726561647920496e697469616c697a6560008201527f6421000000000000000000000000000000000000000000000000000000000000602082015250565b600061208260228361187c565b915061208d82612026565b604082019050919050565b600060208201905081810360008301526120b181612075565b9050919050565b60006120c38261180e565b91506120ce8361180e565b9250817fffffffffffffffffffffffffffffffffffffffffffffffffffffffffffffffff048311821515161561210757612106611f35565b5b828202905092915050565b7f4e487b7100000000000000000000000000000000000000000000000000000000600052601260045260246000fd5b600061214c8261180e565b91506121578361180e565b92508261216757612166612112565b5b828204905092915050565b7f4e487b7100000000000000000000000000000000000000000000000000000000600052603260045260246000fd5b60006121ac8261180e565b91507fffffffffffffffffffffffffffffffffffffffffffffffffffffffffffffffff8214156121df576121de611f35565b5b600182019050919050565b7f45524332303a2064656372656173656420616c6c6f77616e63652062656c6f7760008201527f207a65726f000000000000000000000000000000000000000000000000000000602082015250565b600061224660258361187c565b9150612251826121ea565b604082019050919050565b6000602082019050818103600083015261227581612239565b9050919050565b60006122878261180e565b91506122928361180e565b9250828210156122a5576122a4611f35565b5b828203905092915050565b7f5f616d6f756e743a20416c726561647920496e697469616c697a656421000000600082015250565b60006122e6601d8361187c565b91506122f1826122b0565b602082019050919050565b60006020820190508181036000830152612315816122d9565b9050919050565b7f596f752063616e20616464207570746f2031302062656e696669636961727921600082015250565b600061235260208361187c565b915061235d8261231c565b602082019050919050565b6000602082019050818103600083015261238181612345565b9050919050565b7f596f7520617265206e6f7420612062656e696669636961727921000000000000600082015250565b60006123be601a8361187c565b91506123c982612388565b602082019050919050565b600060208201905081810360008301526123ed816123b1565b9050919050565b7f4e6f20746f6b656e7320746f2072656c65617365000000000000000000000000600082015250565b600061242a60148361187c565b9150612435826123f4565b602082019050919050565b600060208201905081810360008301526124598161241d565b9050919050565b7f4f776e61626c653a206e6577206f776e657220697320746865207a65726f206160008201527f6464726573730000000000000000000000000000000000000000000000000000602082015250565b60006124bc60268361187c565b91506124c782612460565b604082019050919050565b600060208201905081810360008301526124eb816124af565b9050919050565b7f45524332303a20617070726f76652066726f6d20746865207a65726f2061646460008201527f7265737300000000000000000000000000000000000000000000000000000000602082015250565b600061254e60248361187c565b9150612559826124f2565b604082019050919050565b6000602082019050818103600083015261257d81612541565b9050919050565b7f45524332303a20617070726f766520746f20746865207a65726f20616464726560008201527f7373000000000000000000000000000000000000000000000000000000000000602082015250565b60006125e060228361187c565b91506125eb82612584565b604082019050919050565b6000602082019050818103600083015261260f816125d3565b9050919050565b7f45524332303a20696e73756666696369656e7420616c6c6f77616e6365000000600082015250565b600061264c601d8361187c565b915061265782612616565b602082019050919050565b6000602082019050818103600083015261267b8161263f565b9050919050565b7f45524332303a207472616e736665722066726f6d20746865207a65726f20616460008201527f6472657373000000000000000000000000000000000000000000000000000000602082015250565b60006126de60258361187c565b91506126e982612682565b604082019050919050565b6000602082019050818103600083015261270d816126d1565b9050919050565b7f45524332303a207472616e7366657220746f20746865207a65726f206164647260008201527f6573730000000000000000000000000000000000000000000000000000000000602082015250565b600061277060238361187c565b915061277b82612714565b604082019050919050565b6000602082019050818103600083015261279f81612763565b9050919050565b7f45524332303a207472616e7366657220616d6f756e742065786365656473206260008201527f616c616e63650000000000000000000000000000000000000000000000000000602082015250565b600061280260268361187c565b915061280d826127a6565b604082019050919050565b60006020820190508181036000830152612831816127f5565b905091905056fea26469706673582212204eb348d2e8677d965c18636521998b3c158ef6a7be6a8c45cfe1740f38f9389264736f6c634300080a0033",
  "linkReferences": {},
  "deployedLinkReferences": {}
}