{
  "_format": "hh-sol-artifact-1",
  "contractName": "XYZToken",
  "sourceName": "contracts/XYZToken.sol",
  "abi": [
    {
      "inputs": [
        {
          "internalType": "uint256",
          "name": "initialSupply",
          "type": "uint256"
        }
      ],
      "stateMutability": "nonpayable",
      "type": "constructor"
    },
    {
      "anonymous": false,
      "inputs": [
        {
          "indexed": true,
          "internalType": "address",
          "name": "owner",
          "type": "address"
        },
        {
          "indexed": true,
          "internalType": "address",
          "name": "spender",
          "type": "address"
        },
        {
          "indexed": false,
          "internalType": "uint256",
          "name": "value",
          "type": "uint256"
        }
      ],
      "name": "Approval",
      "type": "event"
    },
    {
      "anonymous": false,
      "inputs": [
        {
          "indexed": true,
          "internalType": "address",
          "name": "previousOwner",
          "type": "address"
        },
        {
          "indexed": true,
          "internalType": "address",
          "name": "newOwner",
          "type": "address"
        }
      ],
      "name": "OwnershipTransferred",
      "type": "event"
    },
    {
      "anonymous": false,
      "inputs": [
        {
          "indexed": false,
          "internalType": "uint256",
          "name": "releasedAmount",
          "type": "uint256"
        }
      ],
      "name": "TokenRelease",
      "type": "event"
    },
    {
      "anonymous": false,
      "inputs": [
        {
          "indexed": true,
          "internalType": "address",
          "name": "from",
          "type": "address"
        },
        {
          "indexed": true,
          "internalType": "address",
          "name": "to",
          "type": "address"
        },
        {
          "indexed": false,
          "internalType": "uint256",
          "name": "value",
          "type": "uint256"
        }
      ],
      "name": "Transfer",
      "type": "event"
    },
    {
      "inputs": [
        {
          "internalType": "address[]",
          "name": "beneficiaries_",
          "type": "address[]"
        }
      ],
      "name": "addBenificiaries",
      "outputs": [],
      "stateMutability": "nonpayable",
      "type": "function"
    },
    {
      "inputs": [
        {
          "internalType": "address",
          "name": "owner",
          "type": "address"
        },
        {
          "internalType": "address",
          "name": "spender",
          "type": "address"
        }
      ],
      "name": "allowance",
      "outputs": [
        {
          "internalType": "uint256",
          "name": "",
          "type": "uint256"
        }
      ],
      "stateMutability": "view",
      "type": "function"
    },
    {
      "inputs": [],
      "name": "amount",
      "outputs": [
        {
          "internalType": "uint256",
          "name": "",
          "type": "uint256"
        }
      ],
      "stateMutability": "view",
      "type": "function"
    },
    {
      "inputs": [
        {
          "internalType": "address",
          "name": "spender",
          "type": "address"
        },
        {
          "internalType": "uint256",
          "name": "amount",
          "type": "uint256"
        }
      ],
      "name": "approve",
      "outputs": [
        {
          "internalType": "bool",
          "name": "",
          "type": "bool"
        }
      ],
      "stateMutability": "nonpayable",
      "type": "function"
    },
    {
      "inputs": [
        {
          "internalType": "address",
          "name": "account",
          "type": "address"
        }
      ],
      "name": "balanceOf",
      "outputs": [
        {
          "internalType": "uint256",
          "name": "",
          "type": "uint256"
        }
      ],
      "stateMutability": "view",
      "type": "function"
    },
    {
      "inputs": [],
      "name": "beneficiaries",
      "outputs": [
        {
          "internalType": "address[]",
          "name": "",
          "type": "address[]"
        }
      ],
      "stateMutability": "view",
      "type": "function"
    },
    {
      "inputs": [],
      "name": "decimals",
      "outputs": [
        {
          "internalType": "uint8",
          "name": "",
          "type": "uint8"
        }
      ],
      "stateMutability": "view",
      "type": "function"
    },
    {
      "inputs": [
        {
          "internalType": "address",
          "name": "spender",
          "type": "address"
        },
        {
          "internalType": "uint256",
          "name": "subtractedValue",
          "type": "uint256"
        }
      ],
      "name": "decreaseAllowance",
      "outputs": [
        {
          "internalType": "bool",
          "name": "",
          "type": "bool"
        }
      ],
      "stateMutability": "nonpayable",
      "type": "function"
    },
    {
      "inputs": [
        {
          "internalType": "uint256",
          "name": "vestingDuration_",
          "type": "uint256"
        }
      ],
      "name": "enableTokenVesting",
      "outputs": [],
      "stateMutability": "nonpayable",
      "type": "function"
    },
    {
      "inputs": [],
      "name": "getVestedAmount",
      "outputs": [
        {
          "internalType": "uint256",
          "name": "",
          "type": "uint256"
        }
      ],
      "stateMutability": "view",
      "type": "function"
    },
    {
      "inputs": [
        {
          "internalType": "address",
          "name": "spender",
          "type": "address"
        },
        {
          "internalType": "uint256",
          "name": "addedValue",
          "type": "uint256"
        }
      ],
      "name": "increaseAllowance",
      "outputs": [
        {
          "internalType": "bool",
          "name": "",
          "type": "bool"
        }
      ],
      "stateMutability": "nonpayable",
      "type": "function"
    },
    {
      "inputs": [],
      "name": "isBeneficiary",
      "outputs": [
        {
          "internalType": "bool",
          "name": "",
          "type": "bool"
        }
      ],
      "stateMutability": "view",
      "type": "function"
    },
    {
      "inputs": [],
      "name": "name",
      "outputs": [
        {
          "internalType": "string",
          "name": "",
          "type": "string"
        }
      ],
      "stateMutability": "view",
      "type": "function"
    },
    {
      "inputs": [],
      "name": "owner",
      "outputs": [
        {
          "internalType": "address",
          "name": "",
          "type": "address"
        }
      ],
      "stateMutability": "view",
      "type": "function"
    },
    {
      "inputs": [],
      "name": "releaseRate",
      "outputs": [
        {
          "internalType": "uint256",
          "name": "",
          "type": "uint256"
        }
      ],
      "stateMutability": "view",
      "type": "function"
    },
    {
      "inputs": [],
      "name": "releaseToken",
      "outputs": [],
      "stateMutability": "nonpayable",
      "type": "function"
    },
    {
      "inputs": [],
      "name": "renounceOwnership",
      "outputs": [],
      "stateMutability": "nonpayable",
      "type": "function"
    },
    {
      "inputs": [
        {
          "internalType": "uint256",
          "name": "totalSupply_",
          "type": "uint256"
        },
        {
          "internalType": "uint256",
          "name": "totalBenificiaries_",
          "type": "uint256"
        }
      ],
      "name": "setAmount",
      "outputs": [],
      "stateMutability": "nonpayable",
      "type": "function"
    },
    {
      "inputs": [
        {
          "internalType": "uint256",
          "name": "vestingDuration_",
          "type": "uint256"
        }
      ],
      "name": "setReleaseRate",
      "outputs": [],
      "stateMutability": "nonpayable",
      "type": "function"
    },
    {
      "inputs": [],
      "name": "symbol",
      "outputs": [
        {
          "internalType": "string",
          "name": "",
          "type": "string"
        }
      ],
      "stateMutability": "view",
      "type": "function"
    },
    {
      "inputs": [
        {
          "internalType": "address",
          "name": "beneficiary_",
          "type": "address"
        }
      ],
      "name": "tokenReleased",
      "outputs": [
        {
          "internalType": "uint256",
          "name": "",
          "type": "uint256"
        }
      ],
      "stateMutability": "view",
      "type": "function"
    },
    {
      "inputs": [
        {
          "internalType": "uint256",
          "name": "startTime_",
          "type": "uint256"
        },
        {
          "internalType": "uint256",
          "name": "endTime_",
          "type": "uint256"
        }
      ],
      "name": "tokenVested",
      "outputs": [
        {
          "internalType": "uint256",
          "name": "",
          "type": "uint256"
        }
      ],
      "stateMutability": "view",
      "type": "function"
    },
    {
      "inputs": [],
      "name": "totalSupply",
      "outputs": [
        {
          "internalType": "uint256",
          "name": "",
          "type": "uint256"
        }
      ],
      "stateMutability": "view",
      "type": "function"
    },
    {
      "inputs": [
        {
          "internalType": "address",
          "name": "to",
          "type": "address"
        },
        {
          "internalType": "uint256",
          "name": "amount",
          "type": "uint256"
        }
      ],
      "name": "transfer",
      "outputs": [
        {
          "internalType": "bool",
          "name": "",
          "type": "bool"
        }
      ],
      "stateMutability": "nonpayable",
      "type": "function"
    },
    {
      "inputs": [
        {
          "internalType": "address",
          "name": "from",
          "type": "address"
        },
        {
          "internalType": "address",
          "name": "to",
          "type": "address"
        },
        {
          "internalType": "uint256",
          "name": "amount",
          "type": "uint256"
        }
      ],
      "name": "transferFrom",
      "outputs": [
        {
          "internalType": "bool",
          "name": "",
          "type": "bool"
        }
      ],
      "stateMutability": "nonpayable",
      "type": "function"
    },
    {
      "inputs": [
        {
          "internalType": "address",
          "name": "newOwner",
          "type": "address"
        }
      ],
      "name": "transferOwnership",
      "outputs": [],
      "stateMutability": "nonpayable",
      "type": "function"
    },
    {
      "inputs": [],
      "name": "vestingDuration",
      "outputs": [
        {
          "internalType": "uint256",
          "name": "",
          "type": "uint256"
        }
      ],
      "stateMutability": "view",
      "type": "function"
    },
    {
      "inputs": [],
      "name": "vestingStartTime",
      "outputs": [
        {
          "internalType": "uint256",
          "name": "",
          "type": "uint256"
        }
      ],
      "stateMutability": "view",
      "type": "function"
    }
  ],
  "bytecode": "0x60806040523480156200001157600080fd5b50604051620030bc380380620030bc833981810160405281019062000037919062000484565b6040518060400160405280600981526020017f58595a20546f6b656e00000000000000000000000000000000000000000000008152506040518060400160405280600381526020017f58595a00000000000000000000000000000000000000000000000000000000008152508160039080519060200190620000bb92919062000394565b508060049080519060200190620000d492919062000394565b505050620000f7620000eb6200013a60201b60201c565b6200014260201b60201c565b62000133336200010c6200020860201b60201c565b600a6200011a919062000646565b8362000127919062000697565b6200021160201b60201c565b506200086b565b600033905090565b6000600560009054906101000a900473ffffffffffffffffffffffffffffffffffffffff16905081600560006101000a81548173ffffffffffffffffffffffffffffffffffffffff021916908373ffffffffffffffffffffffffffffffffffffffff1602179055508173ffffffffffffffffffffffffffffffffffffffff168173ffffffffffffffffffffffffffffffffffffffff167f8be0079c531659141344cd1fd0a4f28419497f9722a3daafe3b4186f6b6457e060405160405180910390a35050565b60006012905090565b600073ffffffffffffffffffffffffffffffffffffffff168273ffffffffffffffffffffffffffffffffffffffff16141562000284576040517f08c379a00000000000000000000000000000000000000000000000000000000081526004016200027b9062000759565b60405180910390fd5b62000298600083836200038a60201b60201c565b8060026000828254620002ac91906200077b565b92505081905550806000808473ffffffffffffffffffffffffffffffffffffffff1673ffffffffffffffffffffffffffffffffffffffff16815260200190815260200160002060008282546200030391906200077b565b925050819055508173ffffffffffffffffffffffffffffffffffffffff16600073ffffffffffffffffffffffffffffffffffffffff167fddf252ad1be2c89b69c2b068fc378daa952ba7f163c4a11628f55a4df523b3ef836040516200036a9190620007e9565b60405180910390a362000386600083836200038f60201b60201c565b5050565b505050565b505050565b828054620003a29062000835565b90600052602060002090601f016020900481019282620003c6576000855562000412565b82601f10620003e157805160ff191683800117855562000412565b8280016001018555821562000412579182015b8281111562000411578251825591602001919060010190620003f4565b5b50905062000421919062000425565b5090565b5b808211156200044057600081600090555060010162000426565b5090565b600080fd5b6000819050919050565b6200045e8162000449565b81146200046a57600080fd5b50565b6000815190506200047e8162000453565b92915050565b6000602082840312156200049d576200049c62000444565b5b6000620004ad848285016200046d565b91505092915050565b7f4e487b7100000000000000000000000000000000000000000000000000000000600052601160045260246000fd5b60008160011c9050919050565b6000808291508390505b600185111562000544578086048111156200051c576200051b620004b6565b5b60018516156200052c5780820291505b80810290506200053c85620004e5565b9450620004fc565b94509492505050565b6000826200055f576001905062000632565b816200056f576000905062000632565b81600181146200058857600281146200059357620005c9565b600191505062000632565b60ff841115620005a857620005a7620004b6565b5b8360020a915084821115620005c257620005c1620004b6565b5b5062000632565b5060208310610133831016604e8410600b8410161715620006035782820a905083811115620005fd57620005fc620004b6565b5b62000632565b620006128484846001620004f2565b925090508184048111156200062c576200062b620004b6565b5b81810290505b9392505050565b600060ff82169050919050565b6000620006538262000449565b9150620006608362000639565b92506200068f7fffffffffffffffffffffffffffffffffffffffffffffffffffffffffffffffff84846200054d565b905092915050565b6000620006a48262000449565b9150620006b18362000449565b9250817fffffffffffffffffffffffffffffffffffffffffffffffffffffffffffffffff0483118215151615620006ed57620006ec620004b6565b5b828202905092915050565b600082825260208201905092915050565b7f45524332303a206d696e7420746f20746865207a65726f206164647265737300600082015250565b600062000741601f83620006f8565b91506200074e8262000709565b602082019050919050565b60006020820190508181036000830152620007748162000732565b9050919050565b6000620007888262000449565b9150620007958362000449565b9250827fffffffffffffffffffffffffffffffffffffffffffffffffffffffffffffffff03821115620007cd57620007cc620004b6565b5b828201905092915050565b620007e38162000449565b82525050565b6000602082019050620008006000830184620007d8565b92915050565b7f4e487b7100000000000000000000000000000000000000000000000000000000600052602260045260246000fd5b600060028204905060018216806200084e57607f821691505b6020821081141562000865576200086462000806565b5b50919050565b612841806200087b6000396000f3fe608060405234801561001057600080fd5b50600436106101c35760003560e01c806395d89b41116100f9578063aa8c217c11610097578063ca74110411610071578063ca7411041461050e578063dd62ed3e1461052a578063ec715a311461055a578063f2fde38b14610564576101c3565b8063aa8c217c146104a4578063b9cdf75d146104c2578063c6a023e9146104f2576101c3565b8063a7032998116100d3578063a703299814610408578063a8660a7814610426578063a89eeebd14610444578063a9059cbb14610474576101c3565b806395d89b411461039c5780639f2d9f2a146103ba578063a457c2d7146103d8576101c3565b8063313ce5671161016657806370a082311161014057806370a0823114610326578063715018a6146103565780637b70209f146103605780638da5cb5b1461037e576101c3565b8063313ce567146102bc57806339509351146102da57806364bb6dd51461030a576101c3565b80631514617e116101a25780631514617e1461023257806318160ddd146102505780631d29bd5a1461026e57806323b872dd1461028c576101c3565b8062df15a8146101c857806306fdde03146101e4578063095ea7b314610202575b600080fd5b6101e260048036038101906101dd9190611817565b610580565b005b6101ec610673565b6040516101f991906118dd565b60405180910390f35b61021c6004803603810190610217919061195d565b610705565b60405161022991906119b8565b60405180910390f35b61023a610728565b60405161024791906119e2565b60405180910390f35b610258610732565b60405161026591906119e2565b60405180910390f35b61027661073c565b6040516102839190611abb565b60405180910390f35b6102a660048036038101906102a19190611add565b6107ca565b6040516102b391906119b8565b60405180910390f35b6102c46107f9565b6040516102d19190611b4c565b60405180910390f35b6102f460048036038101906102ef919061195d565b610802565b60405161030191906119b8565b60405180910390f35b610324600480360381019061031f9190611817565b6108ac565b005b610340600480360381019061033b9190611b67565b61095a565b60405161034d91906119e2565b60405180910390f35b61035e6109a2565b005b610368610a2a565b60405161037591906119b8565b60405180910390f35b610386610ad7565b6040516103939190611ba3565b60405180910390f35b6103a4610b01565b6040516103b191906118dd565b60405180910390f35b6103c2610b93565b6040516103cf91906119e2565b60405180910390f35b6103f260048036038101906103ed919061195d565b610bb5565b6040516103ff91906119b8565b60405180910390f35b610410610c9f565b60405161041d91906119e2565b60405180910390f35b61042e610ca9565b60405161043b91906119e2565b60405180910390f35b61045e60048036038101906104599190611b67565b610cb3565b60405161046b91906119e2565b60405180910390f35b61048e6004803603810190610489919061195d565b610cfc565b60405161049b91906119b8565b60405180910390f35b6104ac610d1f565b6040516104b991906119e2565b60405180910390f35b6104dc60048036038101906104d79190611bbe565b610d29565b6040516104e991906119e2565b60405180910390f35b61050c60048036038101906105079190611bbe565b610d8b565b005b61052860048036038101906105239190611d46565b610de6565b005b610544600480360381019061053f9190611d8f565b610f47565b60405161055191906119e2565b60405180910390f35b610562610fce565b005b61057e60048036038101906105799190611b67565b6110cc565b005b6105886111c4565b73ffffffffffffffffffffffffffffffffffffffff166105a6610ad7565b73ffffffffffffffffffffffffffffffffffffffff16146105fc576040517f08c379a00000000000000000000000000000000000000000000000000000000081526004016105f390611e1b565b60405180910390fd5b6000600a5414610641576040517f08c379a000000000000000000000000000000000000000000000000000000000815260040161063890611e87565b60405180910390fd5b42600a8190555080600b8190555061066561065a610732565b600980549050610d8b565b610670600b546108ac565b50565b60606003805461068290611ed6565b80601f01602080910402602001604051908101604052809291908181526020018280546106ae90611ed6565b80156106fb5780601f106106d0576101008083540402835291602001916106fb565b820191906000526020600020905b8154815290600101906020018083116106de57829003601f168201915b5050505050905090565b6000806107106111c4565b905061071d8185856111cc565b600191505092915050565b6000600b54905090565b6000600254905090565b606060098054806020026020016040519081016040528092919081815260200182805480156107c057602002820191906000526020600020905b8160009054906101000a900473ffffffffffffffffffffffffffffffffffffffff1673ffffffffffffffffffffffffffffffffffffffff1681526020019060010190808311610776575b5050505050905090565b6000806107d56111c4565b90506107e2858285611397565b6107ed858585611423565b60019150509392505050565b60006012905090565b60008061080d6111c4565b90506108a1818585600160008673ffffffffffffffffffffffffffffffffffffffff1673ffffffffffffffffffffffffffffffffffffffff16815260200190815260200160002060008973ffffffffffffffffffffffffffffffffffffffff1673ffffffffffffffffffffffffffffffffffffffff1681526020019081526020016000205461089c9190611f37565b6111cc565b600191505092915050565b600060065414156108f2576040517f08c379a00000000000000000000000000000000000000000000000000000000081526004016108e990611fd9565b60405180910390fd5b600060075414610937576040517f08c379a000000000000000000000000000000000000000000000000000000000815260040161092e9061206b565b60405180910390fd5b80603c600654610947919061208b565b6109519190612114565b60078190555050565b60008060008373ffffffffffffffffffffffffffffffffffffffff1673ffffffffffffffffffffffffffffffffffffffff168152602001908152602001600020549050919050565b6109aa6111c4565b73ffffffffffffffffffffffffffffffffffffffff166109c8610ad7565b73ffffffffffffffffffffffffffffffffffffffff1614610a1e576040517f08c379a0000000000000000000000000000000000000000000000000000000008152600401610a1590611e1b565b60405180910390fd5b610a2860006116a4565b565b600080600090505b600980549050811015610ace5760098181548110610a5357610a52612145565b5b9060005260206000200160009054906101000a900473ffffffffffffffffffffffffffffffffffffffff1673ffffffffffffffffffffffffffffffffffffffff163373ffffffffffffffffffffffffffffffffffffffff161415610abb576001915050610ad4565b8080610ac690612174565b915050610a32565b50600090505b90565b6000600560009054906101000a900473ffffffffffffffffffffffffffffffffffffffff16905090565b606060048054610b1090611ed6565b80601f0160208091040260200160405190810160405280929190818152602001828054610b3c90611ed6565b8015610b895780601f10610b5e57610100808354040283529160200191610b89565b820191906000526020600020905b815481529060010190602001808311610b6c57829003601f168201915b5050505050905090565b6000610bb0600a54600b54600a54610bab9190611f37565b610d29565b905090565b600080610bc06111c4565b90506000600160008373ffffffffffffffffffffffffffffffffffffffff1673ffffffffffffffffffffffffffffffffffffffff16815260200190815260200160002060008673ffffffffffffffffffffffffffffffffffffffff1673ffffffffffffffffffffffffffffffffffffffff16815260200190815260200160002054905083811015610c86576040517f08c379a0000000000000000000000000000000000000000000000000000000008152600401610c7d9061222f565b60405180910390fd5b610c9382868684036111cc565b60019250505092915050565b6000600754905090565b6000600a54905090565b6000600860008373ffffffffffffffffffffffffffffffffffffffff1673ffffffffffffffffffffffffffffffffffffffff168152602001908152602001600020549050919050565b600080610d076111c4565b9050610d14818585611423565b600191505092915050565b6000600654905090565b600080603c8442610d3a919061224f565b610d449190612114565b90506000603c8585610d56919061224f565b610d609190612114565b905080821115610d6e578091505b610d76610c9f565b82610d81919061208b565b9250505092915050565b600060065414610dd0576040517f08c379a0000000000000000000000000000000000000000000000000000000008152600401610dc7906122cf565b60405180910390fd5b8082610ddc9190612114565b6006819055505050565b610dee6111c4565b73ffffffffffffffffffffffffffffffffffffffff16610e0c610ad7565b73ffffffffffffffffffffffffffffffffffffffff1614610e62576040517f08c379a0000000000000000000000000000000000000000000000000000000008152600401610e5990611e1b565b60405180910390fd5b600a81511115610ea7576040517f08c379a0000000000000000000000000000000000000000000000000000000008152600401610e9e9061233b565b60405180910390fd5b60005b8151811015610f43576009828281518110610ec857610ec7612145565b5b60200260200101519080600181540180825580915050600190039060005260206000200160009091909190916101000a81548173ffffffffffffffffffffffffffffffffffffffff021916908373ffffffffffffffffffffffffffffffffffffffff1602179055508080610f3b90612174565b915050610eaa565b5050565b6000600160008473ffffffffffffffffffffffffffffffffffffffff1673ffffffffffffffffffffffffffffffffffffffff16815260200190815260200160002060008373ffffffffffffffffffffffffffffffffffffffff1673ffffffffffffffffffffffffffffffffffffffff16815260200190815260200160002054905092915050565b610fd6610a2a565b611015576040517f08c379a000000000000000000000000000000000000000000000000000000000815260040161100c906123a7565b60405180910390fd5b600061102033610cb3565b611028610b93565b611032919061224f565b905060008111611077576040517f08c379a000000000000000000000000000000000000000000000000000000000815260040161106e90612413565b60405180910390fd5b611089611082610ad7565b3383611423565b6110928161176a565b7f12c37c045b98faddddef76ab2f83334003eba58aa8ffb0e0fdd8242ef202295e816040516110c191906119e2565b60405180910390a150565b6110d46111c4565b73ffffffffffffffffffffffffffffffffffffffff166110f2610ad7565b73ffffffffffffffffffffffffffffffffffffffff1614611148576040517f08c379a000000000000000000000000000000000000000000000000000000000815260040161113f90611e1b565b60405180910390fd5b600073ffffffffffffffffffffffffffffffffffffffff168173ffffffffffffffffffffffffffffffffffffffff1614156111b8576040517f08c379a00000000000000000000000000000000000000000000000000000000081526004016111af906124a5565b60405180910390fd5b6111c1816116a4565b50565b600033905090565b600073ffffffffffffffffffffffffffffffffffffffff168373ffffffffffffffffffffffffffffffffffffffff16141561123c576040517f08c379a000000000000000000000000000000000000000000000000000000000815260040161123390612537565b60405180910390fd5b600073ffffffffffffffffffffffffffffffffffffffff168273ffffffffffffffffffffffffffffffffffffffff1614156112ac576040517f08c379a00000000000000000000000000000000000000000000000000000000081526004016112a3906125c9565b60405180910390fd5b80600160008573ffffffffffffffffffffffffffffffffffffffff1673ffffffffffffffffffffffffffffffffffffffff16815260200190815260200160002060008473ffffffffffffffffffffffffffffffffffffffff1673ffffffffffffffffffffffffffffffffffffffff168152602001908152602001600020819055508173ffffffffffffffffffffffffffffffffffffffff168373ffffffffffffffffffffffffffffffffffffffff167f8c5be1e5ebec7d5bd14f71427d1e84f3dd0314c0f7b2291e5b200ac8c7c3b9258360405161138a91906119e2565b60405180910390a3505050565b60006113a38484610f47565b90507fffffffffffffffffffffffffffffffffffffffffffffffffffffffffffffffff811461141d578181101561140f576040517f08c379a000000000000000000000000000000000000000000000000000000000815260040161140690612635565b60405180910390fd5b61141c84848484036111cc565b5b50505050565b600073ffffffffffffffffffffffffffffffffffffffff168373ffffffffffffffffffffffffffffffffffffffff161415611493576040517f08c379a000000000000000000000000000000000000000000000000000000000815260040161148a906126c7565b60405180910390fd5b600073ffffffffffffffffffffffffffffffffffffffff168273ffffffffffffffffffffffffffffffffffffffff161415611503576040517f08c379a00000000000000000000000000000000000000000000000000000000081526004016114fa90612759565b60405180910390fd5b61150e8383836117c3565b60008060008573ffffffffffffffffffffffffffffffffffffffff1673ffffffffffffffffffffffffffffffffffffffff16815260200190815260200160002054905081811015611594576040517f08c379a000000000000000000000000000000000000000000000000000000000815260040161158b906127eb565b60405180910390fd5b8181036000808673ffffffffffffffffffffffffffffffffffffffff1673ffffffffffffffffffffffffffffffffffffffff16815260200190815260200160002081905550816000808573ffffffffffffffffffffffffffffffffffffffff1673ffffffffffffffffffffffffffffffffffffffff16815260200190815260200160002060008282546116279190611f37565b925050819055508273ffffffffffffffffffffffffffffffffffffffff168473ffffffffffffffffffffffffffffffffffffffff167fddf252ad1be2c89b69c2b068fc378daa952ba7f163c4a11628f55a4df523b3ef8460405161168b91906119e2565b60405180910390a361169e8484846117c8565b50505050565b6000600560009054906101000a900473ffffffffffffffffffffffffffffffffffffffff16905081600560006101000a81548173ffffffffffffffffffffffffffffffffffffffff021916908373ffffffffffffffffffffffffffffffffffffffff1602179055508173ffffffffffffffffffffffffffffffffffffffff168173ffffffffffffffffffffffffffffffffffffffff167f8be0079c531659141344cd1fd0a4f28419497f9722a3daafe3b4186f6b6457e060405160405180910390a35050565b80600860003373ffffffffffffffffffffffffffffffffffffffff1673ffffffffffffffffffffffffffffffffffffffff16815260200190815260200160002060008282546117b99190611f37565b9250508190555050565b505050565b505050565b6000604051905090565b600080fd5b600080fd5b6000819050919050565b6117f4816117e1565b81146117ff57600080fd5b50565b600081359050611811816117eb565b92915050565b60006020828403121561182d5761182c6117d7565b5b600061183b84828501611802565b91505092915050565b600081519050919050565b600082825260208201905092915050565b60005b8381101561187e578082015181840152602081019050611863565b8381111561188d576000848401525b50505050565b6000601f19601f8301169050919050565b60006118af82611844565b6118b9818561184f565b93506118c9818560208601611860565b6118d281611893565b840191505092915050565b600060208201905081810360008301526118f781846118a4565b905092915050565b600073ffffffffffffffffffffffffffffffffffffffff82169050919050565b600061192a826118ff565b9050919050565b61193a8161191f565b811461194557600080fd5b50565b60008135905061195781611931565b92915050565b60008060408385031215611974576119736117d7565b5b600061198285828601611948565b925050602061199385828601611802565b9150509250929050565b60008115159050919050565b6119b28161199d565b82525050565b60006020820190506119cd60008301846119a9565b92915050565b6119dc816117e1565b82525050565b60006020820190506119f760008301846119d3565b92915050565b600081519050919050565b600082825260208201905092915050565b6000819050602082019050919050565b611a328161191f565b82525050565b6000611a448383611a29565b60208301905092915050565b6000602082019050919050565b6000611a68826119fd565b611a728185611a08565b9350611a7d83611a19565b8060005b83811015611aae578151611a958882611a38565b9750611aa083611a50565b925050600181019050611a81565b5085935050505092915050565b60006020820190508181036000830152611ad58184611a5d565b905092915050565b600080600060608486031215611af657611af56117d7565b5b6000611b0486828701611948565b9350506020611b1586828701611948565b9250506040611b2686828701611802565b9150509250925092565b600060ff82169050919050565b611b4681611b30565b82525050565b6000602082019050611b616000830184611b3d565b92915050565b600060208284031215611b7d57611b7c6117d7565b5b6000611b8b84828501611948565b91505092915050565b611b9d8161191f565b82525050565b6000602082019050611bb86000830184611b94565b92915050565b60008060408385031215611bd557611bd46117d7565b5b6000611be385828601611802565b9250506020611bf485828601611802565b9150509250929050565b600080fd5b7f4e487b7100000000000000000000000000000000000000000000000000000000600052604160045260246000fd5b611c3b82611893565b810181811067ffffffffffffffff82111715611c5a57611c59611c03565b5b80604052505050565b6000611c6d6117cd565b9050611c798282611c32565b919050565b600067ffffffffffffffff821115611c9957611c98611c03565b5b602082029050602081019050919050565b600080fd5b6000611cc2611cbd84611c7e565b611c63565b90508083825260208201905060208402830185811115611ce557611ce4611caa565b5b835b81811015611d0e5780611cfa8882611948565b845260208401935050602081019050611ce7565b5050509392505050565b600082601f830112611d2d57611d2c611bfe565b5b8135611d3d848260208601611caf565b91505092915050565b600060208284031215611d5c57611d5b6117d7565b5b600082013567ffffffffffffffff811115611d7a57611d796117dc565b5b611d8684828501611d18565b91505092915050565b60008060408385031215611da657611da56117d7565b5b6000611db485828601611948565b9250506020611dc585828601611948565b9150509250929050565b7f4f776e61626c653a2063616c6c6572206973206e6f7420746865206f776e6572600082015250565b6000611e0560208361184f565b9150611e1082611dcf565b602082019050919050565b60006020820190508181036000830152611e3481611df8565b9050919050565b7f546f6b656e2076657374696e6720616c72656164792073746172746564210000600082015250565b6000611e71601e8361184f565b9150611e7c82611e3b565b602082019050919050565b60006020820190508181036000830152611ea081611e64565b9050919050565b7f4e487b7100000000000000000000000000000000000000000000000000000000600052602260045260246000fd5b60006002820490506001821680611eee57607f821691505b60208210811415611f0257611f01611ea7565b5b50919050565b7f4e487b7100000000000000000000000000000000000000000000000000000000600052601160045260246000fd5b6000611f42826117e1565b9150611f4d836117e1565b9250827fffffffffffffffffffffffffffffffffffffffffffffffffffffffffffffffff03821115611f8257611f81611f08565b5b828201905092915050565b7f5f616d6f756e74204e6f7420496e697469616c697a6564210000000000000000600082015250565b6000611fc360188361184f565b9150611fce82611f8d565b602082019050919050565b60006020820190508181036000830152611ff281611fb6565b9050919050565b7f5f72656c65617365526174653a20416c726561647920496e697469616c697a6560008201527f6421000000000000000000000000000000000000000000000000000000000000602082015250565b600061205560228361184f565b915061206082611ff9565b604082019050919050565b6000602082019050818103600083015261208481612048565b9050919050565b6000612096826117e1565b91506120a1836117e1565b9250817fffffffffffffffffffffffffffffffffffffffffffffffffffffffffffffffff04831182151516156120da576120d9611f08565b5b828202905092915050565b7f4e487b7100000000000000000000000000000000000000000000000000000000600052601260045260246000fd5b600061211f826117e1565b915061212a836117e1565b92508261213a576121396120e5565b5b828204905092915050565b7f4e487b7100000000000000000000000000000000000000000000000000000000600052603260045260246000fd5b600061217f826117e1565b91507fffffffffffffffffffffffffffffffffffffffffffffffffffffffffffffffff8214156121b2576121b1611f08565b5b600182019050919050565b7f45524332303a2064656372656173656420616c6c6f77616e63652062656c6f7760008201527f207a65726f000000000000000000000000000000000000000000000000000000602082015250565b600061221960258361184f565b9150612224826121bd565b604082019050919050565b600060208201905081810360008301526122488161220c565b9050919050565b600061225a826117e1565b9150612265836117e1565b92508282101561227857612277611f08565b5b828203905092915050565b7f5f616d6f756e743a20416c726561647920496e697469616c697a656421000000600082015250565b60006122b9601d8361184f565b91506122c482612283565b602082019050919050565b600060208201905081810360008301526122e8816122ac565b9050919050565b7f596f752063616e20616464207570746f2031302062656e696669636961727921600082015250565b600061232560208361184f565b9150612330826122ef565b602082019050919050565b6000602082019050818103600083015261235481612318565b9050919050565b7f596f7520617265206e6f7420612062656e696669636961727921000000000000600082015250565b6000612391601a8361184f565b915061239c8261235b565b602082019050919050565b600060208201905081810360008301526123c081612384565b9050919050565b7f4e6f20746f6b656e7320746f2072656c65617365000000000000000000000000600082015250565b60006123fd60148361184f565b9150612408826123c7565b602082019050919050565b6000602082019050818103600083015261242c816123f0565b9050919050565b7f4f776e61626c653a206e6577206f776e657220697320746865207a65726f206160008201527f6464726573730000000000000000000000000000000000000000000000000000602082015250565b600061248f60268361184f565b915061249a82612433565b604082019050919050565b600060208201905081810360008301526124be81612482565b9050919050565b7f45524332303a20617070726f76652066726f6d20746865207a65726f2061646460008201527f7265737300000000000000000000000000000000000000000000000000000000602082015250565b600061252160248361184f565b915061252c826124c5565b604082019050919050565b6000602082019050818103600083015261255081612514565b9050919050565b7f45524332303a20617070726f766520746f20746865207a65726f20616464726560008201527f7373000000000000000000000000000000000000000000000000000000000000602082015250565b60006125b360228361184f565b91506125be82612557565b604082019050919050565b600060208201905081810360008301526125e2816125a6565b9050919050565b7f45524332303a20696e73756666696369656e7420616c6c6f77616e6365000000600082015250565b600061261f601d8361184f565b915061262a826125e9565b602082019050919050565b6000602082019050818103600083015261264e81612612565b9050919050565b7f45524332303a207472616e736665722066726f6d20746865207a65726f20616460008201527f6472657373000000000000000000000000000000000000000000000000000000602082015250565b60006126b160258361184f565b91506126bc82612655565b604082019050919050565b600060208201905081810360008301526126e0816126a4565b9050919050565b7f45524332303a207472616e7366657220746f20746865207a65726f206164647260008201527f6573730000000000000000000000000000000000000000000000000000000000602082015250565b600061274360238361184f565b915061274e826126e7565b604082019050919050565b6000602082019050818103600083015261277281612736565b9050919050565b7f45524332303a207472616e7366657220616d6f756e742065786365656473206260008201527f616c616e63650000000000000000000000000000000000000000000000000000602082015250565b60006127d560268361184f565b91506127e082612779565b604082019050919050565b60006020820190508181036000830152612804816127c8565b905091905056fea26469706673582212200b5374682edf5d8cb58ee0d9d2a8f76ac642648d910f766a53b21c3e2963cc1964736f6c634300080a0033",
  "linkReferences": {},
  "deployedLinkReferences": {}
}