{
  "_format": "hh-sol-artifact-1",
  "contractName": "XYZToken",
  "sourceName": "contracts/XYZToken.sol",
  "abi": [
    {
      "inputs": [
        {
          "internalType": "uint256",
          "name": "initialSupply",
          "type": "uint256"
        }
      ],
      "stateMutability": "nonpayable",
      "type": "constructor"
    },
    {
      "anonymous": false,
      "inputs": [
        {
          "indexed": true,
          "internalType": "address",
          "name": "owner",
          "type": "address"
        },
        {
          "indexed": true,
          "internalType": "address",
          "name": "spender",
          "type": "address"
        },
        {
          "indexed": false,
          "internalType": "uint256",
          "name": "value",
          "type": "uint256"
        }
      ],
      "name": "Approval",
      "type": "event"
    },
    {
      "anonymous": false,
      "inputs": [
        {
          "indexed": true,
          "internalType": "address",
          "name": "previousOwner",
          "type": "address"
        },
        {
          "indexed": true,
          "internalType": "address",
          "name": "newOwner",
          "type": "address"
        }
      ],
      "name": "OwnershipTransferred",
      "type": "event"
    },
    {
      "anonymous": false,
      "inputs": [
        {
          "indexed": true,
          "internalType": "address",
          "name": "from",
          "type": "address"
        },
        {
          "indexed": true,
          "internalType": "address",
          "name": "to",
          "type": "address"
        },
        {
          "indexed": false,
          "internalType": "uint256",
          "name": "value",
          "type": "uint256"
        }
      ],
      "name": "Transfer",
      "type": "event"
    },
    {
      "inputs": [
        {
          "internalType": "address[]",
          "name": "beneficiaries_",
          "type": "address[]"
        }
      ],
      "name": "addBenificiaries",
      "outputs": [],
      "stateMutability": "nonpayable",
      "type": "function"
    },
    {
      "inputs": [
        {
          "internalType": "address",
          "name": "owner",
          "type": "address"
        },
        {
          "internalType": "address",
          "name": "spender",
          "type": "address"
        }
      ],
      "name": "allowance",
      "outputs": [
        {
          "internalType": "uint256",
          "name": "",
          "type": "uint256"
        }
      ],
      "stateMutability": "view",
      "type": "function"
    },
    {
      "inputs": [],
      "name": "amount",
      "outputs": [
        {
          "internalType": "uint256",
          "name": "",
          "type": "uint256"
        }
      ],
      "stateMutability": "view",
      "type": "function"
    },
    {
      "inputs": [
        {
          "internalType": "address",
          "name": "spender",
          "type": "address"
        },
        {
          "internalType": "uint256",
          "name": "amount",
          "type": "uint256"
        }
      ],
      "name": "approve",
      "outputs": [
        {
          "internalType": "bool",
          "name": "",
          "type": "bool"
        }
      ],
      "stateMutability": "nonpayable",
      "type": "function"
    },
    {
      "inputs": [
        {
          "internalType": "address",
          "name": "account",
          "type": "address"
        }
      ],
      "name": "balanceOf",
      "outputs": [
        {
          "internalType": "uint256",
          "name": "",
          "type": "uint256"
        }
      ],
      "stateMutability": "view",
      "type": "function"
    },
    {
      "inputs": [],
      "name": "beneficiaries",
      "outputs": [
        {
          "internalType": "address[]",
          "name": "",
          "type": "address[]"
        }
      ],
      "stateMutability": "view",
      "type": "function"
    },
    {
      "inputs": [],
      "name": "decimals",
      "outputs": [
        {
          "internalType": "uint8",
          "name": "",
          "type": "uint8"
        }
      ],
      "stateMutability": "view",
      "type": "function"
    },
    {
      "inputs": [
        {
          "internalType": "address",
          "name": "spender",
          "type": "address"
        },
        {
          "internalType": "uint256",
          "name": "subtractedValue",
          "type": "uint256"
        }
      ],
      "name": "decreaseAllowance",
      "outputs": [
        {
          "internalType": "bool",
          "name": "",
          "type": "bool"
        }
      ],
      "stateMutability": "nonpayable",
      "type": "function"
    },
    {
      "inputs": [
        {
          "internalType": "uint256",
          "name": "vestingDuration_",
          "type": "uint256"
        }
      ],
      "name": "enableTokenVesting",
      "outputs": [],
      "stateMutability": "nonpayable",
      "type": "function"
    },
    {
      "inputs": [
        {
          "internalType": "address",
          "name": "beneficiary_",
          "type": "address"
        }
      ],
      "name": "getReleasedAmount",
      "outputs": [
        {
          "internalType": "uint256",
          "name": "",
          "type": "uint256"
        }
      ],
      "stateMutability": "view",
      "type": "function"
    },
    {
      "inputs": [],
      "name": "getVestedAmount",
      "outputs": [
        {
          "internalType": "uint256",
          "name": "",
          "type": "uint256"
        }
      ],
      "stateMutability": "view",
      "type": "function"
    },
    {
      "inputs": [
        {
          "internalType": "address",
          "name": "spender",
          "type": "address"
        },
        {
          "internalType": "uint256",
          "name": "addedValue",
          "type": "uint256"
        }
      ],
      "name": "increaseAllowance",
      "outputs": [
        {
          "internalType": "bool",
          "name": "",
          "type": "bool"
        }
      ],
      "stateMutability": "nonpayable",
      "type": "function"
    },
    {
      "inputs": [],
      "name": "isBeneficiary",
      "outputs": [
        {
          "internalType": "bool",
          "name": "",
          "type": "bool"
        }
      ],
      "stateMutability": "view",
      "type": "function"
    },
    {
      "inputs": [],
      "name": "name",
      "outputs": [
        {
          "internalType": "string",
          "name": "",
          "type": "string"
        }
      ],
      "stateMutability": "view",
      "type": "function"
    },
    {
      "inputs": [],
      "name": "owner",
      "outputs": [
        {
          "internalType": "address",
          "name": "",
          "type": "address"
        }
      ],
      "stateMutability": "view",
      "type": "function"
    },
    {
      "inputs": [],
      "name": "releaseRate",
      "outputs": [
        {
          "internalType": "uint256",
          "name": "",
          "type": "uint256"
        }
      ],
      "stateMutability": "view",
      "type": "function"
    },
    {
      "inputs": [],
      "name": "releaseToken",
      "outputs": [],
      "stateMutability": "nonpayable",
      "type": "function"
    },
    {
      "inputs": [],
      "name": "renounceOwnership",
      "outputs": [],
      "stateMutability": "nonpayable",
      "type": "function"
    },
    {
      "inputs": [
        {
          "internalType": "uint256",
          "name": "totalSupply_",
          "type": "uint256"
        },
        {
          "internalType": "uint256",
          "name": "totalBenificiaries_",
          "type": "uint256"
        }
      ],
      "name": "setAmount",
      "outputs": [],
      "stateMutability": "nonpayable",
      "type": "function"
    },
    {
      "inputs": [
        {
          "internalType": "uint256",
          "name": "vestingDuration_",
          "type": "uint256"
        }
      ],
      "name": "setReleaseRate",
      "outputs": [],
      "stateMutability": "nonpayable",
      "type": "function"
    },
    {
      "inputs": [],
      "name": "symbol",
      "outputs": [
        {
          "internalType": "string",
          "name": "",
          "type": "string"
        }
      ],
      "stateMutability": "view",
      "type": "function"
    },
    {
      "inputs": [
        {
          "internalType": "address",
          "name": "beneficiary_",
          "type": "address"
        }
      ],
      "name": "tokenReleased",
      "outputs": [
        {
          "internalType": "uint256",
          "name": "",
          "type": "uint256"
        }
      ],
      "stateMutability": "view",
      "type": "function"
    },
    {
      "inputs": [
        {
          "internalType": "uint256",
          "name": "startTime_",
          "type": "uint256"
        },
        {
          "internalType": "uint256",
          "name": "endTime_",
          "type": "uint256"
        }
      ],
      "name": "tokenVested",
      "outputs": [
        {
          "internalType": "uint256",
          "name": "",
          "type": "uint256"
        }
      ],
      "stateMutability": "view",
      "type": "function"
    },
    {
      "inputs": [],
      "name": "totalSupply",
      "outputs": [
        {
          "internalType": "uint256",
          "name": "",
          "type": "uint256"
        }
      ],
      "stateMutability": "view",
      "type": "function"
    },
    {
      "inputs": [
        {
          "internalType": "address",
          "name": "to",
          "type": "address"
        },
        {
          "internalType": "uint256",
          "name": "amount",
          "type": "uint256"
        }
      ],
      "name": "transfer",
      "outputs": [
        {
          "internalType": "bool",
          "name": "",
          "type": "bool"
        }
      ],
      "stateMutability": "nonpayable",
      "type": "function"
    },
    {
      "inputs": [
        {
          "internalType": "address",
          "name": "from",
          "type": "address"
        },
        {
          "internalType": "address",
          "name": "to",
          "type": "address"
        },
        {
          "internalType": "uint256",
          "name": "amount",
          "type": "uint256"
        }
      ],
      "name": "transferFrom",
      "outputs": [
        {
          "internalType": "bool",
          "name": "",
          "type": "bool"
        }
      ],
      "stateMutability": "nonpayable",
      "type": "function"
    },
    {
      "inputs": [
        {
          "internalType": "address",
          "name": "newOwner",
          "type": "address"
        }
      ],
      "name": "transferOwnership",
      "outputs": [],
      "stateMutability": "nonpayable",
      "type": "function"
    },
    {
      "inputs": [
        {
          "internalType": "address",
          "name": "beneficiary_",
          "type": "address"
        },
        {
          "internalType": "uint256",
          "name": "releaseAmount_",
          "type": "uint256"
        }
      ],
      "name": "updateReleasedAmount",
      "outputs": [],
      "stateMutability": "nonpayable",
      "type": "function"
    }
  ],
  "bytecode": "0x60806040523480156200001157600080fd5b506040516200308338038062003083833981810160405281019062000037919062000484565b6040518060400160405280600981526020017f58595a20546f6b656e00000000000000000000000000000000000000000000008152506040518060400160405280600381526020017f58595a00000000000000000000000000000000000000000000000000000000008152508160039080519060200190620000bb92919062000394565b508060049080519060200190620000d492919062000394565b505050620000f7620000eb6200013a60201b60201c565b6200014260201b60201c565b62000133336200010c6200020860201b60201c565b600a6200011a919062000646565b8362000127919062000697565b6200021160201b60201c565b506200086b565b600033905090565b6000600560009054906101000a900473ffffffffffffffffffffffffffffffffffffffff16905081600560006101000a81548173ffffffffffffffffffffffffffffffffffffffff021916908373ffffffffffffffffffffffffffffffffffffffff1602179055508173ffffffffffffffffffffffffffffffffffffffff168173ffffffffffffffffffffffffffffffffffffffff167f8be0079c531659141344cd1fd0a4f28419497f9722a3daafe3b4186f6b6457e060405160405180910390a35050565b60006012905090565b600073ffffffffffffffffffffffffffffffffffffffff168273ffffffffffffffffffffffffffffffffffffffff16141562000284576040517f08c379a00000000000000000000000000000000000000000000000000000000081526004016200027b9062000759565b60405180910390fd5b62000298600083836200038a60201b60201c565b8060026000828254620002ac91906200077b565b92505081905550806000808473ffffffffffffffffffffffffffffffffffffffff1673ffffffffffffffffffffffffffffffffffffffff16815260200190815260200160002060008282546200030391906200077b565b925050819055508173ffffffffffffffffffffffffffffffffffffffff16600073ffffffffffffffffffffffffffffffffffffffff167fddf252ad1be2c89b69c2b068fc378daa952ba7f163c4a11628f55a4df523b3ef836040516200036a9190620007e9565b60405180910390a362000386600083836200038f60201b60201c565b5050565b505050565b505050565b828054620003a29062000835565b90600052602060002090601f016020900481019282620003c6576000855562000412565b82601f10620003e157805160ff191683800117855562000412565b8280016001018555821562000412579182015b8281111562000411578251825591602001919060010190620003f4565b5b50905062000421919062000425565b5090565b5b808211156200044057600081600090555060010162000426565b5090565b600080fd5b6000819050919050565b6200045e8162000449565b81146200046a57600080fd5b50565b6000815190506200047e8162000453565b92915050565b6000602082840312156200049d576200049c62000444565b5b6000620004ad848285016200046d565b91505092915050565b7f4e487b7100000000000000000000000000000000000000000000000000000000600052601160045260246000fd5b60008160011c9050919050565b6000808291508390505b600185111562000544578086048111156200051c576200051b620004b6565b5b60018516156200052c5780820291505b80810290506200053c85620004e5565b9450620004fc565b94509492505050565b6000826200055f576001905062000632565b816200056f576000905062000632565b81600181146200058857600281146200059357620005c9565b600191505062000632565b60ff841115620005a857620005a7620004b6565b5b8360020a915084821115620005c257620005c1620004b6565b5b5062000632565b5060208310610133831016604e8410600b8410161715620006035782820a905083811115620005fd57620005fc620004b6565b5b62000632565b620006128484846001620004f2565b925090508184048111156200062c576200062b620004b6565b5b81810290505b9392505050565b600060ff82169050919050565b6000620006538262000449565b9150620006608362000639565b92506200068f7fffffffffffffffffffffffffffffffffffffffffffffffffffffffffffffffff84846200054d565b905092915050565b6000620006a48262000449565b9150620006b18362000449565b9250817fffffffffffffffffffffffffffffffffffffffffffffffffffffffffffffffff0483118215151615620006ed57620006ec620004b6565b5b828202905092915050565b600082825260208201905092915050565b7f45524332303a206d696e7420746f20746865207a65726f206164647265737300600082015250565b600062000741601f83620006f8565b91506200074e8262000709565b602082019050919050565b60006020820190508181036000830152620007748162000732565b9050919050565b6000620007888262000449565b9150620007958362000449565b9250827fffffffffffffffffffffffffffffffffffffffffffffffffffffffffffffffff03821115620007cd57620007cc620004b6565b5b828201905092915050565b620007e38162000449565b82525050565b6000602082019050620008006000830184620007d8565b92915050565b7f4e487b7100000000000000000000000000000000000000000000000000000000600052602260045260246000fd5b600060028204905060018216806200084e57607f821691505b6020821081141562000865576200086462000806565b5b50919050565b612808806200087b6000396000f3fe608060405234801561001057600080fd5b50600436106101c35760003560e01c806395d89b41116100f9578063b9cdf75d11610097578063dd62ed3e11610071578063dd62ed3e1461051e578063ec715a311461054e578063f2fde38b14610558578063f32cddc014610574576101c3565b8063b9cdf75d146104b6578063c6a023e9146104e6578063ca74110414610502576101c3565b8063a7032998116100d3578063a70329981461041a578063a89eeebd14610438578063a9059cbb14610468578063aa8c217c14610498576101c3565b806395d89b41146103ae5780639f2d9f2a146103cc578063a457c2d7146103ea576101c3565b80633950935111610166578063715018a611610140578063715018a6146103385780637b70209f1461034257806386197781146103605780638da5cb5b14610390576101c3565b806339509351146102bc57806364bb6dd5146102ec57806370a0823114610308576101c3565b806318160ddd116101a257806318160ddd146102325780631d29bd5a1461025057806323b872dd1461026e578063313ce5671461029e576101c3565b8062df15a8146101c857806306fdde03146101e4578063095ea7b314610202575b600080fd5b6101e260048036038101906101dd91906117de565b610590565b005b6101ec610683565b6040516101f991906118a4565b60405180910390f35b61021c60048036038101906102179190611924565b610715565b604051610229919061197f565b60405180910390f35b61023a610738565b60405161024791906119a9565b60405180910390f35b610258610742565b6040516102659190611a82565b60405180910390f35b61028860048036038101906102839190611aa4565b6107d0565b604051610295919061197f565b60405180910390f35b6102a66107ff565b6040516102b39190611b13565b60405180910390f35b6102d660048036038101906102d19190611924565b610808565b6040516102e3919061197f565b60405180910390f35b610306600480360381019061030191906117de565b6108b2565b005b610322600480360381019061031d9190611b2e565b610960565b60405161032f91906119a9565b60405180910390f35b6103406109a8565b005b61034a610a30565b604051610357919061197f565b60405180910390f35b61037a60048036038101906103759190611b2e565b610add565b60405161038791906119a9565b60405180910390f35b610398610aef565b6040516103a59190611b6a565b60405180910390f35b6103b6610b19565b6040516103c391906118a4565b60405180910390f35b6103d4610bab565b6040516103e191906119a9565b60405180910390f35b61040460048036038101906103ff9190611924565b610bcd565b604051610411919061197f565b60405180910390f35b610422610cb7565b60405161042f91906119a9565b60405180910390f35b610452600480360381019061044d9190611b2e565b610cc1565b60405161045f91906119a9565b60405180910390f35b610482600480360381019061047d9190611924565b610d0a565b60405161048f919061197f565b60405180910390f35b6104a0610d2d565b6040516104ad91906119a9565b60405180910390f35b6104d060048036038101906104cb9190611b85565b610d37565b6040516104dd91906119a9565b60405180910390f35b61050060048036038101906104fb9190611b85565b610d99565b005b61051c60048036038101906105179190611d0d565b610df4565b005b61053860048036038101906105339190611d56565b610f55565b60405161054591906119a9565b60405180910390f35b610556610fdc565b005b610572600480360381019061056d9190611b2e565b6110a4565b005b61058e60048036038101906105899190611924565b61119c565b005b6105986111e4565b73ffffffffffffffffffffffffffffffffffffffff166105b6610aef565b73ffffffffffffffffffffffffffffffffffffffff161461060c576040517f08c379a000000000000000000000000000000000000000000000000000000000815260040161060390611de2565b60405180910390fd5b6000600a5414610651576040517f08c379a000000000000000000000000000000000000000000000000000000000815260040161064890611e4e565b60405180910390fd5b42600a8190555080600b8190555061067561066a610738565b600980549050610d99565b610680600b546108b2565b50565b60606003805461069290611e9d565b80601f01602080910402602001604051908101604052809291908181526020018280546106be90611e9d565b801561070b5780601f106106e05761010080835404028352916020019161070b565b820191906000526020600020905b8154815290600101906020018083116106ee57829003601f168201915b5050505050905090565b6000806107206111e4565b905061072d8185856111ec565b600191505092915050565b6000600254905090565b606060098054806020026020016040519081016040528092919081815260200182805480156107c657602002820191906000526020600020905b8160009054906101000a900473ffffffffffffffffffffffffffffffffffffffff1673ffffffffffffffffffffffffffffffffffffffff168152602001906001019080831161077c575b5050505050905090565b6000806107db6111e4565b90506107e88582856113b7565b6107f3858585611443565b60019150509392505050565b60006012905090565b6000806108136111e4565b90506108a7818585600160008673ffffffffffffffffffffffffffffffffffffffff1673ffffffffffffffffffffffffffffffffffffffff16815260200190815260200160002060008973ffffffffffffffffffffffffffffffffffffffff1673ffffffffffffffffffffffffffffffffffffffff168152602001908152602001600020546108a29190611efe565b6111ec565b600191505092915050565b600060065414156108f8576040517f08c379a00000000000000000000000000000000000000000000000000000000081526004016108ef90611fa0565b60405180910390fd5b60006007541461093d576040517f08c379a000000000000000000000000000000000000000000000000000000000815260040161093490612032565b60405180910390fd5b80603c60065461094d9190612052565b61095791906120db565b60078190555050565b60008060008373ffffffffffffffffffffffffffffffffffffffff1673ffffffffffffffffffffffffffffffffffffffff168152602001908152602001600020549050919050565b6109b06111e4565b73ffffffffffffffffffffffffffffffffffffffff166109ce610aef565b73ffffffffffffffffffffffffffffffffffffffff1614610a24576040517f08c379a0000000000000000000000000000000000000000000000000000000008152600401610a1b90611de2565b60405180910390fd5b610a2e60006116c4565b565b600080600090505b600980549050811015610ad45760098181548110610a5957610a5861210c565b5b9060005260206000200160009054906101000a900473ffffffffffffffffffffffffffffffffffffffff1673ffffffffffffffffffffffffffffffffffffffff163373ffffffffffffffffffffffffffffffffffffffff161415610ac1576001915050610ada565b8080610acc9061213b565b915050610a38565b50600090505b90565b6000610ae882610cc1565b9050919050565b6000600560009054906101000a900473ffffffffffffffffffffffffffffffffffffffff16905090565b606060048054610b2890611e9d565b80601f0160208091040260200160405190810160405280929190818152602001828054610b5490611e9d565b8015610ba15780601f10610b7657610100808354040283529160200191610ba1565b820191906000526020600020905b815481529060010190602001808311610b8457829003601f168201915b5050505050905090565b6000610bc8600a54600b54600a54610bc39190611efe565b610d37565b905090565b600080610bd86111e4565b90506000600160008373ffffffffffffffffffffffffffffffffffffffff1673ffffffffffffffffffffffffffffffffffffffff16815260200190815260200160002060008673ffffffffffffffffffffffffffffffffffffffff1673ffffffffffffffffffffffffffffffffffffffff16815260200190815260200160002054905083811015610c9e576040517f08c379a0000000000000000000000000000000000000000000000000000000008152600401610c95906121f6565b60405180910390fd5b610cab82868684036111ec565b60019250505092915050565b6000600754905090565b6000600860008373ffffffffffffffffffffffffffffffffffffffff1673ffffffffffffffffffffffffffffffffffffffff168152602001908152602001600020549050919050565b600080610d156111e4565b9050610d22818585611443565b600191505092915050565b6000600654905090565b600080603c8442610d489190612216565b610d5291906120db565b90506000603c8585610d649190612216565b610d6e91906120db565b905080821115610d7c578091505b610d84610cb7565b82610d8f9190612052565b9250505092915050565b600060065414610dde576040517f08c379a0000000000000000000000000000000000000000000000000000000008152600401610dd590612296565b60405180910390fd5b8082610dea91906120db565b6006819055505050565b610dfc6111e4565b73ffffffffffffffffffffffffffffffffffffffff16610e1a610aef565b73ffffffffffffffffffffffffffffffffffffffff1614610e70576040517f08c379a0000000000000000000000000000000000000000000000000000000008152600401610e6790611de2565b60405180910390fd5b600a81511115610eb5576040517f08c379a0000000000000000000000000000000000000000000000000000000008152600401610eac90612302565b60405180910390fd5b60005b8151811015610f51576009828281518110610ed657610ed561210c565b5b60200260200101519080600181540180825580915050600190039060005260206000200160009091909190916101000a81548173ffffffffffffffffffffffffffffffffffffffff021916908373ffffffffffffffffffffffffffffffffffffffff1602179055508080610f499061213b565b915050610eb8565b5050565b6000600160008473ffffffffffffffffffffffffffffffffffffffff1673ffffffffffffffffffffffffffffffffffffffff16815260200190815260200160002060008373ffffffffffffffffffffffffffffffffffffffff1673ffffffffffffffffffffffffffffffffffffffff16815260200190815260200160002054905092915050565b610fe4610a30565b611023576040517f08c379a000000000000000000000000000000000000000000000000000000000815260040161101a9061236e565b60405180910390fd5b600061102e33610add565b611036610bab565b6110409190612216565b905060008111611085576040517f08c379a000000000000000000000000000000000000000000000000000000000815260040161107c906123da565b60405180910390fd5b611097611090610aef565b3383611443565b6110a1338261119c565b50565b6110ac6111e4565b73ffffffffffffffffffffffffffffffffffffffff166110ca610aef565b73ffffffffffffffffffffffffffffffffffffffff1614611120576040517f08c379a000000000000000000000000000000000000000000000000000000000815260040161111790611de2565b60405180910390fd5b600073ffffffffffffffffffffffffffffffffffffffff168173ffffffffffffffffffffffffffffffffffffffff161415611190576040517f08c379a00000000000000000000000000000000000000000000000000000000081526004016111879061246c565b60405180910390fd5b611199816116c4565b50565b80600860008473ffffffffffffffffffffffffffffffffffffffff1673ffffffffffffffffffffffffffffffffffffffff168152602001908152602001600020819055505050565b600033905090565b600073ffffffffffffffffffffffffffffffffffffffff168373ffffffffffffffffffffffffffffffffffffffff16141561125c576040517f08c379a0000000000000000000000000000000000000000000000000000000008152600401611253906124fe565b60405180910390fd5b600073ffffffffffffffffffffffffffffffffffffffff168273ffffffffffffffffffffffffffffffffffffffff1614156112cc576040517f08c379a00000000000000000000000000000000000000000000000000000000081526004016112c390612590565b60405180910390fd5b80600160008573ffffffffffffffffffffffffffffffffffffffff1673ffffffffffffffffffffffffffffffffffffffff16815260200190815260200160002060008473ffffffffffffffffffffffffffffffffffffffff1673ffffffffffffffffffffffffffffffffffffffff168152602001908152602001600020819055508173ffffffffffffffffffffffffffffffffffffffff168373ffffffffffffffffffffffffffffffffffffffff167f8c5be1e5ebec7d5bd14f71427d1e84f3dd0314c0f7b2291e5b200ac8c7c3b925836040516113aa91906119a9565b60405180910390a3505050565b60006113c38484610f55565b90507fffffffffffffffffffffffffffffffffffffffffffffffffffffffffffffffff811461143d578181101561142f576040517f08c379a0000000000000000000000000000000000000000000000000000000008152600401611426906125fc565b60405180910390fd5b61143c84848484036111ec565b5b50505050565b600073ffffffffffffffffffffffffffffffffffffffff168373ffffffffffffffffffffffffffffffffffffffff1614156114b3576040517f08c379a00000000000000000000000000000000000000000000000000000000081526004016114aa9061268e565b60405180910390fd5b600073ffffffffffffffffffffffffffffffffffffffff168273ffffffffffffffffffffffffffffffffffffffff161415611523576040517f08c379a000000000000000000000000000000000000000000000000000000000815260040161151a90612720565b60405180910390fd5b61152e83838361178a565b60008060008573ffffffffffffffffffffffffffffffffffffffff1673ffffffffffffffffffffffffffffffffffffffff168152602001908152602001600020549050818110156115b4576040517f08c379a00000000000000000000000000000000000000000000000000000000081526004016115ab906127b2565b60405180910390fd5b8181036000808673ffffffffffffffffffffffffffffffffffffffff1673ffffffffffffffffffffffffffffffffffffffff16815260200190815260200160002081905550816000808573ffffffffffffffffffffffffffffffffffffffff1673ffffffffffffffffffffffffffffffffffffffff16815260200190815260200160002060008282546116479190611efe565b925050819055508273ffffffffffffffffffffffffffffffffffffffff168473ffffffffffffffffffffffffffffffffffffffff167fddf252ad1be2c89b69c2b068fc378daa952ba7f163c4a11628f55a4df523b3ef846040516116ab91906119a9565b60405180910390a36116be84848461178f565b50505050565b6000600560009054906101000a900473ffffffffffffffffffffffffffffffffffffffff16905081600560006101000a81548173ffffffffffffffffffffffffffffffffffffffff021916908373ffffffffffffffffffffffffffffffffffffffff1602179055508173ffffffffffffffffffffffffffffffffffffffff168173ffffffffffffffffffffffffffffffffffffffff167f8be0079c531659141344cd1fd0a4f28419497f9722a3daafe3b4186f6b6457e060405160405180910390a35050565b505050565b505050565b6000604051905090565b600080fd5b600080fd5b6000819050919050565b6117bb816117a8565b81146117c657600080fd5b50565b6000813590506117d8816117b2565b92915050565b6000602082840312156117f4576117f361179e565b5b6000611802848285016117c9565b91505092915050565b600081519050919050565b600082825260208201905092915050565b60005b8381101561184557808201518184015260208101905061182a565b83811115611854576000848401525b50505050565b6000601f19601f8301169050919050565b60006118768261180b565b6118808185611816565b9350611890818560208601611827565b6118998161185a565b840191505092915050565b600060208201905081810360008301526118be818461186b565b905092915050565b600073ffffffffffffffffffffffffffffffffffffffff82169050919050565b60006118f1826118c6565b9050919050565b611901816118e6565b811461190c57600080fd5b50565b60008135905061191e816118f8565b92915050565b6000806040838503121561193b5761193a61179e565b5b60006119498582860161190f565b925050602061195a858286016117c9565b9150509250929050565b60008115159050919050565b61197981611964565b82525050565b60006020820190506119946000830184611970565b92915050565b6119a3816117a8565b82525050565b60006020820190506119be600083018461199a565b92915050565b600081519050919050565b600082825260208201905092915050565b6000819050602082019050919050565b6119f9816118e6565b82525050565b6000611a0b83836119f0565b60208301905092915050565b6000602082019050919050565b6000611a2f826119c4565b611a3981856119cf565b9350611a44836119e0565b8060005b83811015611a75578151611a5c88826119ff565b9750611a6783611a17565b925050600181019050611a48565b5085935050505092915050565b60006020820190508181036000830152611a9c8184611a24565b905092915050565b600080600060608486031215611abd57611abc61179e565b5b6000611acb8682870161190f565b9350506020611adc8682870161190f565b9250506040611aed868287016117c9565b9150509250925092565b600060ff82169050919050565b611b0d81611af7565b82525050565b6000602082019050611b286000830184611b04565b92915050565b600060208284031215611b4457611b4361179e565b5b6000611b528482850161190f565b91505092915050565b611b64816118e6565b82525050565b6000602082019050611b7f6000830184611b5b565b92915050565b60008060408385031215611b9c57611b9b61179e565b5b6000611baa858286016117c9565b9250506020611bbb858286016117c9565b9150509250929050565b600080fd5b7f4e487b7100000000000000000000000000000000000000000000000000000000600052604160045260246000fd5b611c028261185a565b810181811067ffffffffffffffff82111715611c2157611c20611bca565b5b80604052505050565b6000611c34611794565b9050611c408282611bf9565b919050565b600067ffffffffffffffff821115611c6057611c5f611bca565b5b602082029050602081019050919050565b600080fd5b6000611c89611c8484611c45565b611c2a565b90508083825260208201905060208402830185811115611cac57611cab611c71565b5b835b81811015611cd55780611cc1888261190f565b845260208401935050602081019050611cae565b5050509392505050565b600082601f830112611cf457611cf3611bc5565b5b8135611d04848260208601611c76565b91505092915050565b600060208284031215611d2357611d2261179e565b5b600082013567ffffffffffffffff811115611d4157611d406117a3565b5b611d4d84828501611cdf565b91505092915050565b60008060408385031215611d6d57611d6c61179e565b5b6000611d7b8582860161190f565b9250506020611d8c8582860161190f565b9150509250929050565b7f4f776e61626c653a2063616c6c6572206973206e6f7420746865206f776e6572600082015250565b6000611dcc602083611816565b9150611dd782611d96565b602082019050919050565b60006020820190508181036000830152611dfb81611dbf565b9050919050565b7f546f6b656e2076657374696e6720616c72656164792073746172746564210000600082015250565b6000611e38601e83611816565b9150611e4382611e02565b602082019050919050565b60006020820190508181036000830152611e6781611e2b565b9050919050565b7f4e487b7100000000000000000000000000000000000000000000000000000000600052602260045260246000fd5b60006002820490506001821680611eb557607f821691505b60208210811415611ec957611ec8611e6e565b5b50919050565b7f4e487b7100000000000000000000000000000000000000000000000000000000600052601160045260246000fd5b6000611f09826117a8565b9150611f14836117a8565b9250827fffffffffffffffffffffffffffffffffffffffffffffffffffffffffffffffff03821115611f4957611f48611ecf565b5b828201905092915050565b7f5f616d6f756e74204e6f7420496e697469616c697a6564210000000000000000600082015250565b6000611f8a601883611816565b9150611f9582611f54565b602082019050919050565b60006020820190508181036000830152611fb981611f7d565b9050919050565b7f5f72656c65617365526174653a20416c726561647920496e697469616c697a6560008201527f6421000000000000000000000000000000000000000000000000000000000000602082015250565b600061201c602283611816565b915061202782611fc0565b604082019050919050565b6000602082019050818103600083015261204b8161200f565b9050919050565b600061205d826117a8565b9150612068836117a8565b9250817fffffffffffffffffffffffffffffffffffffffffffffffffffffffffffffffff04831182151516156120a1576120a0611ecf565b5b828202905092915050565b7f4e487b7100000000000000000000000000000000000000000000000000000000600052601260045260246000fd5b60006120e6826117a8565b91506120f1836117a8565b925082612101576121006120ac565b5b828204905092915050565b7f4e487b7100000000000000000000000000000000000000000000000000000000600052603260045260246000fd5b6000612146826117a8565b91507fffffffffffffffffffffffffffffffffffffffffffffffffffffffffffffffff82141561217957612178611ecf565b5b600182019050919050565b7f45524332303a2064656372656173656420616c6c6f77616e63652062656c6f7760008201527f207a65726f000000000000000000000000000000000000000000000000000000602082015250565b60006121e0602583611816565b91506121eb82612184565b604082019050919050565b6000602082019050818103600083015261220f816121d3565b9050919050565b6000612221826117a8565b915061222c836117a8565b92508282101561223f5761223e611ecf565b5b828203905092915050565b7f5f616d6f756e743a20416c726561647920496e697469616c697a656421000000600082015250565b6000612280601d83611816565b915061228b8261224a565b602082019050919050565b600060208201905081810360008301526122af81612273565b9050919050565b7f596f752063616e20616464207570746f2031302062656e696669636961727921600082015250565b60006122ec602083611816565b91506122f7826122b6565b602082019050919050565b6000602082019050818103600083015261231b816122df565b9050919050565b7f596f7520617265206e6f7420612062656e696669636961727921000000000000600082015250565b6000612358601a83611816565b915061236382612322565b602082019050919050565b600060208201905081810360008301526123878161234b565b9050919050565b7f4e6f20746f6b656e7320746f2072656c65617365000000000000000000000000600082015250565b60006123c4601483611816565b91506123cf8261238e565b602082019050919050565b600060208201905081810360008301526123f3816123b7565b9050919050565b7f4f776e61626c653a206e6577206f776e657220697320746865207a65726f206160008201527f6464726573730000000000000000000000000000000000000000000000000000602082015250565b6000612456602683611816565b9150612461826123fa565b604082019050919050565b6000602082019050818103600083015261248581612449565b9050919050565b7f45524332303a20617070726f76652066726f6d20746865207a65726f2061646460008201527f7265737300000000000000000000000000000000000000000000000000000000602082015250565b60006124e8602483611816565b91506124f38261248c565b604082019050919050565b60006020820190508181036000830152612517816124db565b9050919050565b7f45524332303a20617070726f766520746f20746865207a65726f20616464726560008201527f7373000000000000000000000000000000000000000000000000000000000000602082015250565b600061257a602283611816565b91506125858261251e565b604082019050919050565b600060208201905081810360008301526125a98161256d565b9050919050565b7f45524332303a20696e73756666696369656e7420616c6c6f77616e6365000000600082015250565b60006125e6601d83611816565b91506125f1826125b0565b602082019050919050565b60006020820190508181036000830152612615816125d9565b9050919050565b7f45524332303a207472616e736665722066726f6d20746865207a65726f20616460008201527f6472657373000000000000000000000000000000000000000000000000000000602082015250565b6000612678602583611816565b91506126838261261c565b604082019050919050565b600060208201905081810360008301526126a78161266b565b9050919050565b7f45524332303a207472616e7366657220746f20746865207a65726f206164647260008201527f6573730000000000000000000000000000000000000000000000000000000000602082015250565b600061270a602383611816565b9150612715826126ae565b604082019050919050565b60006020820190508181036000830152612739816126fd565b9050919050565b7f45524332303a207472616e7366657220616d6f756e742065786365656473206260008201527f616c616e63650000000000000000000000000000000000000000000000000000602082015250565b600061279c602683611816565b91506127a782612740565b604082019050919050565b600060208201905081810360008301526127cb8161278f565b905091905056fea2646970667358221220ecdb360b2de315577da1db93d6abd9f9b72a60352a7b234fbbab687f02d6fded64736f6c634300080a0033",
  "linkReferences": {},
  "deployedLinkReferences": {}
}